S00B000068617A692E7333373D
S11300000000022091010000BD010000BD010000BC
S1130010BD010000BD010000BD010000BD010000E4
S1130020BD010000BD010000BD010000BD010000D4
S1130030BD010000BC010000BD0100004D3B0000FB
S1130040BD010000B1430000BD010000BD0100007E
S1130050BD010000BD010000BD010000BD010000A4
S1130060BD010000BD010000BD010000954300007A
S1130070BD010000BD010000BD010000BD01000084
S1130080BD01000051070000BD010000BD010000DA
S1130090BD010000BD010000BD010000BD01000064
S11300A0BD010000BD010000BD010000BD01000054
S11300B0BD010000BD010000793A0000BD0100004F
S11300C0BD010000BD010000BD010000BD01000034
S11300D0BD010000BD010000BD01000010B5054CCC
S11300E0237833B9044B13B10448AFF300800123E0
S11300F0237010BDC800002000000000E05900007B
S113010008B5034B1BB103490348AFF3008008BD96
S113011000000000CC000020E0590000154B002B2B
S113012008BF134B9D46A3F5803A00218B460F462A
S11301301348144A121A04F041FA0F4B002B00D052
S113014098470E4B002B00D0984700200021040054
S11301500D000D48002802D00C48AFF3008004F0D5
S113016009FA2000290004F0C7F904F0EFF900BFF0
S11301700000080000000220000000000000000051
S1130180C8000020940100200000000000000000CE
S1130190064880470649074A074B9A42BEBF51F8B2
S11301A0040B42F8040BF8E7FFF7B8FF350300002F
S11301B0EC59000000000020C8000020FEE700BF4A
S11301C080B400AF034BDB6C1B0EDBB21846BD469C
S11301D080BC7047B081E00F80B582B000AF00F002
S11301E01FF87860074B5B6803F00F037A6822FA04
S11301F003F37B60044A7B6813607B681846083706
S1130200BD4680BD00800C400800002080B400AFD3
S1130210024B1846BD4680BC704700BF006CDC0230
S113022080B582B000AF334BDB6A03F47053B3F58F
S1130230805F0AD0B3F5005F03D0B3F5006F08D038
S11302400BE02D4B1B687B6047E04FF400437B6061
S113025043E02A4B1B687B603FE0264BDB6803F4DA
S1130260E063B3F5007F1BD0B3F5007F05D8002B06
S113027024D0B3F5807F16D02BE0B3F5806F09D07E
S1130280B3F5A06F03D0B3F5407F06D021E01C4B3B
S11302907B6021E01B4B7B601EE01B4B7B601BE003
S11302A01A4B7B6018E0FFF78BFF0346122B02D931
S11302B0174B7B6010E0174B7B600DE0FFF780FF6E
S11302C00346122B02D9144B7B6005E0134B7B6071
S11302D002E000237B6000BF00BF064B1B689B0B42
S11302E003F0070301337A68B2FBF3F318460837C7
S11302F0BD4680BD00800C400400002000000020AA
S1130300003FAB01406F4001809FD500C0D8A700DB
S113031040B56400C0CF6A00804F120040420F0015
S113032080B400AF024B1B681846BD4680BC7047C2
S11303300000002080B400AF034B044A9A6000BF61
S1130340BD4680BC704700BF00ED00E00000000027
S113035080B400AF4FF400431846BD4680BC7047DC
S113036080B400AF4FF47A731846BD4680BC704722
S113037080B400AF024B1B681846BD4680BC704772
S11303800400002080B483B000AF0346FB7197F9EA
S11303900730002B0BDBFB7903F01F02064997F9AA
S11303A007305B09012000FA02F241F8232000BF64
S11303B00C37BD4680BC704700E100E080B500AF5B
S11303C0FFF70AFF00BF80BD80B400AF024B1B6A79
S11303D01846BD4680BC704700C0084080B400AFDA
S11303E0024B9B6A1846BD4680BC704700C008405B
S11303F080B483B000AF7860054A7B6803F00F03D4
S1130400A03352F8233018460C37BD4680BC7047E1
S113041000C0084080B483B000AF7860034A7B68B2
S1130420536400BF0C37BD4680BC704700C0084011
S113043080B483B000AF7860054BDA6C04497B6804
S11304401343CB6400BF0C37BD4680BC704700BF6C
S113045000C0084080B483B000AF7860054BDA6C0C
S11304607B68DB4303491340CB6400BF0C37BD46B4
S113047080BC704700C0084080B483B000AF064B16
S1130480DB6C7B60044B1A6C7B68134018460C379A
S1130490BD4680BC704700BF00C0084080B500AFB7
S11304A0FFF78CFF0521112001F082FC0321124883
S11304B001F07EFC0121114801F07AFC0121104871
S11304C001F064FA01210F4801F060FA01210E489D
S11304D001F05CFA01210D4801F058FA01210C48A1
S11304E001F054FA01210B4801F050FA01210948A6
S11304F001F01AF900BF80BD02001E0003002000B5
S11305004081040000D204000092040000A2040010
S1130510D0433E0080062E0080B500AF00210220AB
S113052001F0D2FF002300220821022002F06EF81D
S1130530002300220921022002F068F8002300228F
S11305400A21022002F062F8002300220B2102207B
S113055002F05CF800BF80BD80B500AF002300222C
S11305600021094800F036FD00230022002107483D
S113057000F030FD0649044800F0E8FC0449034853
S113058000F0E4FC00BF80BD0010004000140040F7
S11305903050000080B584B000AF0346FB715B4B64
S11305A01B78002B03D00121594802F0F5FBFB799D
S11305B0002B37D002F0B6FE00BFFFF705FF03465D
S11305C003F01003002BF8D102F0C6FE0421002032
S11305D002F096FC0021002002F02AFD4D4802F0B2
S11305E057FD4D4B1B881A463721082002F032FE76
S11305F0494B5B881A463721092002F02BFE464BF3
S11306009B881A4637210A2002F024FE424BDB88DD
S11306101A4637210B2002F01DFE4FF48030FFF7FD
S113062019FF1EE002F07EFE00BFFFF7CDFE034679
S113063003F01003002BF8D14FF48030FFF7EAFEEB
S113064002F08AFE4021002002F05AFC032100201F
S113065002F0EEFC314802F01BFD4FF48030FFF74E
S1130660E7FE1120FFF78EFE02F042FE274B1B78B7
S1130670002B47D0254B00221A7000BF284B1B6A61
S113068003F00203002BF9D00023FB730023BB7398
S113069019E0BB7B234AD35C002B11D0FB7B032BDB
S11306A00BD8BB7B1846FFF7A3FE03469AB2FB7B2D
S11306B0013A91B2184A22F81310FB7B0133FB7301
S11306C0BB7B0133BB73BB7B0F2BE2D9124B1B8863
S11306D01A463721082002F0BDFD0F4B5B881A46ED
S11306E03721092002F0B6FD0B4B9B881A463721AF
S11306F00A2002F0AFFD084BDB881A4637210B2095
S113070002F0A8FD00BF1037BD4680BD4C0000209C
S11307104450000084500000300100208452000046
S113072000C00840F44F000080B483B000AF78608C
S11307303960054A7B681360044A3B68136000BF54
S11307400C37BD4680BC70472401002028010020DE
S113075080B582B000AFFFF78FFE034603F4803309
S1130760002B44D04FF48030FFF754FE2B4B002273
S11307701A7030E0294B1B78DBB21A46284B9B5C7D
S113078083F00103DBB2002B1DD1FFF727FE786055
S1130790224B1B78DBB21946224A7B6842F821308F
S11307A01E4B1B78DBB21A461F4B53F822307A6873
S11307B09A4209D9194B1B78DBB219461A4A7B684D
S11307C042F8213000E000BF144B1B78DBB2013348
S11307D0DAB2124B1A70114B1B78DBB20F2BC9D94A
S11307E0124B1B68002B02D0104B1B689847FFF775
S11307F043FE034603F47063002B0AD04FF4706089
S1130800FFF708FE0A4B1B68002B02D0084B1B683D
S1130810984700BF0837BD4680BD00BF2C010020AB
S1130820F44F0000E40000200C000020240100200C
S113083028010020B0B491B000AF4FF0FF33BB6388
S1130840EC237B634F4B07F118041D460FCD0FC4F7
S113085095E8030084E803004B4B3C1D1D460FCD77
S11308600FC42B6823600123FB6344E0FB6B9B00F4
S113087007F14002134453F83C3C013B434A52F80D
S113088023301A02FB6B9B0007F140010B4443F831
S1130890282CFB6B9B0007F14002134453F83C3CAB
S11308A0013B3B4A52F82320FB6B9B0007F14001BC
S11308B00B4453F8283CB3FBF2F2FB6B9B0007F1AB
S11308C040010B4443F8282CFB6B9B0007F14002CA
S11308D0134453F8283C7A6B9A4209D9FB6B9B006A
S11308E007F14002134453F8283C7B63FB6BBB6362
S11308F0FB6B0133FB63FB6B042BB7DDBB6BB3F109
S1130900FF3F02D14FF0FF3336E0BB6B013B1B01CD
S11309103B633A6BBB6B013B9B0007F140010B440B
S113092053F8283CC3F58073D900BB6B9B0007F1D7
S11309304000034453F8283CC3F58073B1FBF3F340
S1130940D31A3B63BB6B01339B0007F14002134492
S113095053F8283CC3F58073DA00BB6B9B0007F1A6
S113096040010B4453F8283CC3F58073B2FBF3F207
S11309703B6B13443B633B6B18464437BD46B0BCEA
S1130980704700BF045000001C500000E400002029
S11309900C00002080B500AF012001F0B3FC00BFC3
S11309A080BD80B584B000AF0346FB7101F0C8FB85
S11309B0F860FFF773FDFFF7AFFDFFF7CDFDFB799F
S11309C01846FFF7E7FDF86801F0C9FB00BF1037D0
S11309D0BD4680BD80B483B000AF0346FB71FB7994
S11309E0002B03D0054B01221A6602E0034B0022C0
S11309F01A6600BF0C37BD4680BC704700A0084093
S1130A0080B483B000AF786000BF054B5A6E7B683A
S1130A101340002BF9D100BF0C37BD4680BC704792
S1130A2000A0084080B483B000AF7860054B9A6A98
S1130A307B68DB43034913408B6200BF0C37BD4620
S1130A4080BC704700A0084080B500AF0022284950
S1130A50002001F0FBFF00222549012001F0F6FFF0
S1130A6000222349022001F0F1FF00222049032043
S1130A7001F0ECFF00221E49042001F0E7FF0022F0
S1130A801B49052001F0E2FF00221949062001F06C
S1130A90DDFF00221649072001F0D8FF0022FF21C4
S1130AA0002002F091F80022FF21012002F08CF8CE
S1130AB00022FF21022002F087F80022FF210320F8
S1130AC002F082F80022FF21042002F07DF80022C7
S1130AD0FF21052002F078F80022FF21062002F011
S1130AE073F80022FF21072002F06EF800BF80BDDA
S1130AF000F00FF080B500AF00222649072001F076
S1130B00A5FF00222449062001F0A0FF002222496B
S1130B10052001F09BFF00221F49042001F096FFED
S1130B2000221D49032001F091FF00221A490220EE
S1130B3001F08CFF00221849012001F087FF0022F8
S1130B404FF02041002001F081FF002207210720FF
S1130B5002F03AF800220721062002F035F80022BC
S1130B600721052002F030F800220721042002F0BA
S1130B702BF800220721032002F026F80022072187
S1130B80022002F021F800220721012002F01CF8C3
S1130B9000BF80BD00E00F5000E00FF080B582B0D0
S1130BA000AF0346FB710121244800F0EFFE03214E
S1130BB0234801F0FDF84021224800F0B5FD012052
S1130BC001F042FA0121204800F0E0FE4FF0FF302E
S1130BD0FFF728FF1D4801F0D7FD0121082001F08F
S1130BE031FE0121102001F02DFE0121802001F0B1
S1130BF029FE01214FF4807001F024FE01214FF4FD
S1130C00007001F01FFEFB79002B0DD04FF4402043
S1130C1002F098F84FF4803001F0F2FD0C4BDB6FDA
S1130C200B4A43F00803D367FFF70EFF4FF0FF3082
S1130C30FFF7E6FE00BF0837BD4680BDD0433E0047
S1130C4002001E0080002A0000362C0060570000BD
S1130C5000800C4080B58AB000AF78607B6842F2B7
S1130C600E72934202DD42F20F737B607B6813F5D0
S1130C707A7F01DC3D4B7B607B68002B06DA786869
S1130C8003F060FC78600123BB6101E00023BB61D9
S1130C904FF0FF30FFF7B4FE0120FFF79BFE00F09A
S1130CA06DF80123FB6100233B6254E07A68FB6921
S1130CB092FBF3F22E4B83FB02139910D317C91A3C
S1130CC00B469B000B445B00D11A0B46FB82BB69AD
S1130CD0012B04D13B6A032B01D11023FB82FB8A35
S1130CE0244A32F81330BB8200237B6227E0224976
S1130CF03A6A1346DB009B1A5B00CA187B6A1344EA
S1130D00CB331B783B611C493A6A1346DB009B1AC0
S1130D105B00CA187B6A1344C4331B78FB60BA8A2D
S1130D207B6A42FA03F303F00103002B04D001228F
S1130D303969F86801F0A6FD7B6A01337B627B6A3E
S1130D40062BD4DDFA6913469B0013445B00FB6158
S1130D503B6A01333B623B6A032BA7DD0020FFF7AC
S1130D6039FE00BF2837BD4680BD00BF19FCFFFF18
S1130D70676666663C5700008454000080B500AF87
S1130D8000227821012001F01FFF00227821022097
S1130D9001F01AFF00227821032001F015FF002240
S1130DA07821042001F010FF00227821052001F0B1
S1130DB00BFF00227821062001F006FF0022782193
S1130DC0072001F001FF00BF80BD000080B58AB09C
S1130DD000AF7860786803F0BCFC0346BB61002375
S1130DE03B624FF0FF30FFF70BFE0120FFF7F2FDEF
S1130DF0FFF780FE00233B6245E03A6ABB699A42F2
S1130E0003DA7B681B787B6201E020237B627B6AC8
S1130E10203B7B62214A7B6A32F81330FB82002339
S1130E20FB6127E01E493A6A1346DB009B1A9B00CC
S1130E30CA18FB6913440E331B783B6118493A6A9C
S1130E401346DB009B1A9B00CA18FB6913441B78EA
S1130E50FB60FA8AFB6942FA03F303F00103002BF7
S1130E6005D0FB6839690122184601F00BFDFB69C6
S1130E700133FB61FB690D2BD4DD7B6801337B609F
S1130E803B6A01333B623B6A062BB6DD0020FFF769
S1130E90A1FD00BF2837BD4680BD00BF84560000B9
S1130EA08454000080B584B000AF78603960114A82
S1130EB07B68134403F583731B78FB600D4A7B68DE
S1130EC0134403F587731B78BB603B68002B06D083
S1130ED0FB68B9680122184601F0D4FC05E0FB6800
S1130EE0B9680022184601F0CDFC00BF1037BD469A
S1130EF080BD00BF8454000080B487B000AFF860A8
S1130F00B9607A60FB6803F10473DA00BB681344C8
S1130F109B007B617B697A681A6000BF1C37BD4601
S1130F2080BC704780B485B000AFF860B9607A6067
S1130F30FB681A68BB68DB431A407B681A43FB688A
S1130F401A6000BF1437BD4680BC704780B582B0BC
S1130F5000AF786039607B681C4A934202D07B689A
S1130F601B4A934200BF3B681B78DA073B685B78F7
S1130F709B0713431A463B685B681B0613433A6896
S1130F80127A120213433A68527A12011A437B68A6
S1130F901A603B689B7A1B071A463B68DB7A1B0482
S1130FA01A433B68DB681B02134343F0807343F02E
S1130FB0B0037A68536078683B681B7C1A4600214A
S1130FC0FFF79AFF00BF0837BD4680BD0010004000
S1130FD00014004080B584B000AFF860B9601146D9
S1130FE01A460B46FB711346BB71FB680B4A9342CE
S1130FF002D0FB680A4A934200BFF868BB79DB0061
S11310001A460821FFF78EFFBB681A02FB791A43C0
S1131010FB68DA6100BF1037BD4680BD0010004098
S11310200014004080B487B000AFF860B9607A6003
S1131030FB6803F10473DA00BB6813449B007B6113
S11310407B697A681A6000BF1C37BD4680BC704754
S113105080B485B000AF786039607B6803F10473B5
S1131060DA003B6813449B00FB60FB681B6818466E
S11310701437BD4680BC704780B483B000AF78603D
S113108001227B6802FA03F318460C37BD4680BC84
S1131090704780B485B000AF78607B68002B03D0C4
S11310A07B68B3F5004F00BF7B68B3FA83F3DBB210
S11310B0C3F11F03FB60FB6818461437BD4680BCB0
S11310C07047000080B400AF034BDB6C1B0EDBB237
S11310D01846BD4680BC7047B081E00F80B400AFB5
S11310E0034BDB6C1B0CDBB21846BD4680BC70475F
S11310F0B081E00F80B582B000AFFFF7EFFF034689
S11311004A2B04D0792B02D0482B23D024E0154B52
S11311101B699BB21B029BB203F47C53FB80114BF3
S11311209B691B091B0103F0F0039AB2FB8813436C
S1131130FB800C4BDB691B0903F00F039AB2FB889D
S11311401343FB80FB88B3F5017F01D3064B04E016
S1131150064B02E0054B00E0002318460837BD4665
S113116080BD00BFD0FF0FE000366E010048E801EB
S113117080B584B000AF78600123FB60FFF7BAFF4D
S113118002467B68934204D80023FB600023BB60C3
S11311900BE0FFF7AFFF03465B007A689A4202D880
S11311A00123BB6001E00223BB60FA681E210848EA
S11311B0FFF738FF064B5B6823F48072BB681B02A1
S11311C0034913434B6000BF1037BD4680BD00BFC9
S11311D000800C4080B582B000AF1E210448FFF7A8
S11311E037FF78607B6818460837BD4680BD00BF6E
S11311F000800C4080B582B000AF214B5B6903F4E2
S1131200E063B3F5007F1CD0B3F5007F05D8002B55
S113121025D0B3F5807F1FD02AE0B3F5C06F24D06A
S1131220B3F5E06F1ED0B3F5407F21D1FFF74AFF3D
S11312300346122B02D9134B7B601CE0124B7B60DC
S113124019E0FFF73FFF0346122B02D90F4B7B60D7
S113125011E00F4B7B600EE00E4B7B600BE00E4BFE
S11312607B6008E00D4B7B6005E00D4B7B6002E08A
S113127000237B6000BF7B6818460837BD4680BDED
S113128000800C40804F120040420F0040B56400C3
S1131290C0CF6A00C0D8A700809FD500406F40012E
S11312A0003FAB0180B582B000AF0D4800F0D2FC26
S11312B00346FB70FB78072B05D0092B07D1FEF7FB
S11312C0AFFF786006E0FFF795FF786002E0002347
S11312D07B6000BF7B6818460837BD4680BD00BFF1
S11312E006000E0080B485B000AF78603960204BF2
S11312F05B6803F00703FB60FB68012B01D9042B37
S113130002D10023FB7202E00123FB7200BF7B6861
S1131310184A934207D9FB7A002B01D0052300E039
S11313200423FB6016E07B68124A93420BD87B6867
S1131330114A934207D9FB7A002B01D0032300E022
S11313400123FB6006E0FB7A002B01D0022300E0BE
S11313500023FB60064B5B6823F007020449FB682B
S113136013434B6000BF1437BD4680BC704700BFB9
S113137000000C400048E8010024F40080B582B06D
S113138000AF0E4BDB6B002B14BF01230023FB715A
S11313900A4B41F67132DA63FEF738FF0346002147
S11313A01846FFF79FFFFB79002B02D0034B002266
S11313B0DA6300BF0837BD4680BD00BF00000C40A3
S11313C080B584B000AF786039600C4BDB6B002BC8
S11313D014BF01230023FB73084B41F67132DA6317
S11313E039687868FFF77EFFFB7B002B02D0034B44
S11313F00022DA6300BF1037BD4680BD00000C40F8
S113140090B585B000AF78600023BB607B68344A38
S1131410934203D0334A934200D000E000BF78687F
S113142000F018FC0346FB607B682D4A934203D00E
S11314302C4A934206D00CE02B4B9B6A03F0030327
S1131440FB6006E0284B9B6A9B0803F00303FB60E8
S113145000BFFB68032B39D801A252F823F000BF68
S11314609714000071140000791400008114000026
S1131470FEF76EFFB8602DE0FEF77AFFB86029E052
S1131480FEF7AAFE0446FFF7A5FE0346013324FA3D
S113149003F3BB601EE00023BB607B68104A9342E9
S11314A003D07B680F4A934213D10F4B9A6A7B682F
S11314B00B498B4201D1102300E0142322FA03F3D9
S11314C0002B06D0FEF74CFFB86002E00023BB609F
S11314D000E000BFBB6818461437BD4690BD00BF8E
S11314E002001E000300200000800C4080B483B082
S11314F000AF7860094B5B6D03F00103002B07D14B
S113150000BF064B1A6D7B681340002BF9D100E035
S113151000BF0C37BD4680BC704700BF00800C4044
S113152080B582B000AF104800F094FB0346FB7016
S1131530FB78032B07D0092B09D0022B0BD1FEF724
S113154017FF78600AE0FEF703FF786006E0FEF715
S113155067FE786002E000237B6000BF7B6818466A
S11315600837BD4680BD00BF0723260080B400AF06
S113157000BFBD4680BC704780B400AF00BFBD460D
S113158080BC704790B585B000AF78607B681B095C
S113159003F00F03BB60BB68013B0C2B00F2AE8071
S11315A001A252F823F000BFDD150000FD16000073
S11315B0FD160000ED150000FD160000FD160000EC
S11315C0011600002F160000BB160000FD160000D7
S11315D0FD160000FD160000151600004B4B1B689D
S11315E09B0B03F007030133FB608AE0474B9B68C6
S11315F003F00F03FB60F868FFF73EFDF86080E03E
S1131600424B5B6803F00F03FB60F868FFF734FD9F
S1131610F86076E03D4B5B681B0A03F00103FB6056
S1131620FB6801331846FFF727FDF86069E07B6823
S1131630374A934218D0364A934203D8354A9342E4
S113164007D036E0344A934219D0344A934226D024
S11316502FE02E4B9B6E1B0903F00F03FB60F86811
S1131660FFF70AFDF86027E0284B9B6E1B0A03F086
S11316700F03FB60F868FFF7FFFCF8601CE0234BE6
S11316809B6E1B0B03F003041020FFF702FD0346BF
S11316902344FB60F868FFF7EFFCF8600CE01B4B99
S11316A09B6E03F00303FB60F868FFF7E5FCF8604A
S11316B002E00123FB6000BF23E07B68184A9342E9
S11316C003D0184A93420AD014E0104B1B6F03F066
S11316D00303FB60F868FFF7CFFCF8600DE00B4BE9
S11316E01B6F1B0903F00303FB60F868FFF7C4FCDE
S11316F0F86002E00123FB6000BF02E00123FB600D
S113170000BFFB6818461437BD4690BD00800C40EE
S1131710802616008016120080002A0080062E0003
S113172090071A0090171C0090B585B000AF786040
S113173039607B681B0903F00F03FB60FB68013B06
S11317400C2B00F20F8101A252F823F08117000044
S11317506519000065190000B5170000651900003F
S113176065190000FD1700004F1800001119000052
S1131770651900006519000065190000DD170000F7
S11317803B68002B02D03B68082B00BFFFF7F6FD37
S1131790774B1B6823F4E0323B68013B9B0374499D
S11317A013430B60FEF718FDB8600021B868FFF71B
S11317B007FED8E03B68002B03D03B68B3F5007FFD
S11317C000BF3868FFF765FC3860694B9B6823F0FD
S11317D00F0267493B6813438B60C4E03868FFF726
S11317E058FC0346013B3B60614B5B6823F4807209
S11317F03B681B025E4913434B60B4E03B68002B1B
S113180003D03B68B3F5007F00BFFFF7B7FDFEF7D9
S1131810E3FC02463B68B2FBF3F31846FFF7A8FC6F
S11318203868FFF736FC3860514B5B6823F00F02D1
S11318304F493B6813434B60FEF7CEFCB860002170
S1131840B868FFF7BDFDB868FFF792FC8BE07B68D2
S1131850484A93421ED0474A934203D8464A934289
S113186007D054E0454A934225D0454A93423ED09E
S11318704DE00420FFF73AFE3868FFF70AFC3860B1
S11318803B4B9B6E23F0F0023B681B01384913432A
S11318908B663CE00420FFF729FE3868FFF7F9FB6C
S11318A03860334B9B6E23F470623B681B023049F3
S11318B013438B662BE03B680F2B02D93B68802BCC
S11318C000BF0420FFF712FE3868FFF7E2FB386020
S11318D0274B9B6E23F440541020FFF7DAFB02469B
S11318E03B689B1A1B03224A234393660FE00420A0
S11318F0FFF7FCFD3868FFF7CCFB38601C4B9B6E90
S113190023F003021A493B6813438B6600BF2AE0A5
S11319107B681C4A934203D01B4A934210D020E0B8
S11319204020FFF7E3FD3868FFF7B3FB3860104B46
S11319301B6F23F003020E493B6813430B6710E04F
S11319404020FFF7D3FD3868FFF7A3FB3860084B4E
S11319501B6F23F030023B681B01054913430B67DF
S113196000BF00E000BF00BF1437BD4690BD00BFFC
S113197000800C40802616008016120080002A0089
S113198080062E0090071A0090171C0080B586B0C0
S113199000AF78600B46FB7000233B617B681B0A39
S11319A003F00F03013B092B44D801A252F823F0A2
S11319B0EB190000F1190000D9190000351A0000D4
S11319C0351A0000F7190000011A0000351A00004A
S11319D0351A00000B1A0000184B7B61FEF7FCFB64
S11319E003461846FFF7C4FB12E0154B7B610FE07A
S11319F0144B7B610CE0144B7B6101233B6107E0DA
S1131A00124B7B6110233B6102E0114B7B6100BFF1
S1131A107B681B0B03F01F03FB603B69002B02D0A8
S1131A203869FFF763FDFB781A46F9687869FFF7B0
S1131A30F9FA00E000BF1837BD4680BD40800C4075
S1131A4008800C4044800C4058800C4060800C405E
S1131A5078800C4090B585B000AF78607B6803F463
S1131A607813B3F5D01F00F0B480B3F5D01F1AD8A3
S1131A70B3F5602F00F0C880B3F5602F08D8B3F534
S1131A80003F45D0B3F5802F36D0002B30D0D2E0C4
S1131A90B3F5901F45D0B3F5B01F50D0B3F5801FF8
S1131AA000F0B680C7E0B3F5181F00F0B580B3F5B9
S1131AB0181F0BD8B3F5F01F2ED0B3F5001F00F09C
S1131AC08380B3F5E01F00F09180B4E0B3F5301FDC
S1131AD056D0B3F5301F03D8B3F5281F3DD0AAE084
S1131AE0B3F5381F63D0B3F5781F00F09980A2E0F6
S1131AF0FEF796FBF860A1E0FEF792FBF860524B0C
S1131B009B6803F00F03FA6822FA03F3FB6095E085
S1131B10FEF762FBF86091E04C48FFF771FCF86057
S1131B208CE04A48FFF76CFCF860474B9B6E1B093E
S1131B3003F00F03FA6822FA03F3FB607EE04348E4
S1131B40FFF75EFCF860404B9B6E1B0A03F00F032B
S1131B50FA6822FA03F3FB6070E03C48FFF750FC9C
S1131B60F860394B9B6E1B0B03F003041020FFF746
S1131B7090FA03462344FA6822FA03F3FB605DE01B
S1131B803248FFF73DFCF8602F4B9B6E1B0B03F0B4
S1131B900303FA6822FA03F3FB602B4BDB6F03F0B9
S1131BA007030133FA68B2FBF3F3FB6046E027480E
S1131BB0FFF726FCF860244B9B6E03F00303FA68DE
S1131BC022FA03F3FB6039E02148FFF719FCF860BF
S1131BD034E01F48FFF714FCF8601B4B1B6F03F045
S1131BE00303FA6822FA03F3FB6027E01848FFF7BF
S1131BF007FCF860144B1B6F1B0903F00303FA681E
S1131C0022FA03F3FB6019E0FFF74CFBF86015E0E0
S1131C10FFF7F0FAF86011E0FFF782FCF8600DE0DE
S1131C20FEF7DAFA04467868FFF7ACFC0346B4FB27
S1131C30F3F3FB6002E00023FB6000BFFB6818467F
S1131C401437BD4690BD00BF00800C4002001E004A
S1131C500300200080B485B000AF78600123FB73DB
S1131C607B6803F00F03BB60BB68013B062B00F2EB
S1131C70938001A252F823F0951C0000CB1C0000B5
S1131C80071D0000991D0000991D0000431D000060
S1131C90651D0000454BDB6A03F47053B3F5805FA8
S1131CA009D0B3F5005F03D0B3F5006F06D008E0A8
S1131CB00223FB7308E00323FB7305E00423FB7397
S1131CC002E00523FB7300BF69E0384B9B6A03F015
S1131CD00303022B06D0032B07D0012B08D10323C7
S1131CE0FB730FE00223FB730CE00623FB7309E094
S1131CF02E4B9B6A03F48033002B02D00A23FB7320
S1131D0000E000BF4BE0294B9B6A03F00C03082B57
S1131D1006D00C2B07D0042B08D10323FB730FE050
S1131D200223FB730CE00623FB7309E01F4B9B6A41
S1131D3003F48013002B02D00A23FB7300E000BFDE
S1131D402DE01A4B1B6803F08053002B03D0B3F132
S1131D50805F03D023E00723FB7302E00923FB73B6
S1131D6000BF1CE0114BDB6A03F46033B3F5803F22
S1131D7008D0B3F5003F08D0B3F5004F08D10923CC
S1131D80FB7308E00223FB7305E00323FB7302E00B
S1131D900123FB7300BF02E00023FB7300BFFB7B46
S1131DA018461437BD4680BC704700BF00800C4005
S1131DB080B588B000AF78600B46FB700323FB61ED
S1131DC00323FB7600233B617B6803F00F03FB6076
S1131DD0FB68013B062B00F2288101A252F823F094
S1131DE0FD1D0000D31E0000D31E00002B200000A8
S1131DF02B200000991F0000C31F0000FB78023B4A
S1131E00082B00F2148101A252F823F0311E0000C5
S1131E103B1E0000451E0000871E00002F2000000E
S1131E202F2000002F2000002F2000002F20000072
S1131E300423FB610023FB7631E00323FB610123D0
S1131E40FB762CE00223FB610223FB76FFF752F9B9
S1131E50034601331846FFF78BF9FEF761FA024691
S1131E60764B9A4206D9764B1B68754A43F0600359
S1131E70136014E0724B1B6823F06003704A43F054
S1131E80200313600BE00123FB610323FB76FFF7C0
S1131E9031F9034601331846FFF76AF900BFFB7EA8
S1131EA001220121184600F0EDF8FFF767FAFFF769
S1131EB05DFB634AFB695362FEF78EF9B860B8684C
S1131EC0FFF756F90021B868FFF77AFAFFF754FBD9
S1131ED0B0E0FB78013B092B00F2AB8001A252F881
S1131EE023F000BF0D1F0000131F0000231F00007C
S1131EF03320000033200000331F00003320000093
S1131F0033200000332000004F1F000000237B61BA
S1131F1022E001220121002000F0B4F802237B61B9
S1131F201AE001220121012000F0ACF801237B61B9
S1131F3012E0FEF751F9B860B868FFF719F9012209
S1131F4004214048FFF76EF803237B6104E000237B
S1131F507B6101233B6100BFFB68022B0DD1384B31
S1131F609B6A23F4803323F003037A691A433B69A1
S1131F701B04334913438B625CE0314B9B6A23F4AB
S1131F80801323F00C037A6992001A433B691B0502
S1131F902B4913438B624DE0FB78072B02D0092BAE
S1131FA007D047E0264B1B68254A23F08053136073
S1131FB006E0234B1B68224A43F08053136000BFA2
S1131FC038E0FB78032B14D0092B22D0022B00D04D
S1131FD030E001220121002000F054F8184B402287
S1131FE05A6200BF164BDB6A03F48033002BF9D02E
S1131FF01AE001220121012000F044F8104B602274
S11320005A6200BF0E4BDB6A03F40033002BF9D095
S11320100AE00B4B20225A6200BF094BDB6A03F42F
S11320200043002BF9D000BF04E000BF02E000BF72
S113203000E000BF2037BD4680BD00BF0048E80176
S113204000800C4040800C4080B483B000AF7860C6
S11320500B4B9B6D03F00803002B0CD17B6803F042
S113206007037B60064BDB6F23F0070204497B68A0
S11320701343CB6700E000BF0C37BD4680BC7047FC
S113208000800C4080B586B000AF0346FB710B4660
S1132090BB7113467B71FB79042B48D801A252F81B
S11320A023F000BFF1200000E3200000C72000005F
S11320B0B9200000D520000001233B610223FB600E
S11320C001237B611DE004233B610823FB600323A0
S11320D07B6116E010233B612023FB6005237B61B9
S11320E00FE040233B618023FB6007237B6108E012
S11320F04FF480733B614FF40073FB6009237B61F1
S113210000BFBB79002B0ED00B4A3B6913627B796D
S1132110002B0DD000BF79690848FEF799FF0346EC
S1132120002BF8D004E0044AFB68136200E000BF0F
S11321301837BD4680BD00BF00800C402C800C4089
S113214080B483B000AFEFF310833B603B687B60E7
S113215072B67B6818460C37BD4680BC704780B4A5
S113216083B000AF78607B68002B00D162B600BFFB
S11321700C37BD4680BC704780B500AFFEF72CF825
S113218000BF80BD80B400AF034B0022C3F884209D
S113219000BFBD4680BC704700800C4080B400AFD7
S11321A0044B45F60E02C3F8842000BFBD4680BC34
S11321B0704700BF00800C4080B584B000AF034678
S11321C0FB71FB79002B0BD12B4BDB6A2B4A136081
S11321D01120FFF73FFD03461A46294B1A7047E0CA
S11321E0254BD3F8843003F00103FB60FFF7D6FFDF
S11321F00023BB60214B1B6803F00103BA6813433F
S1132200BB601E4B1B6803F01003BA681343BB602A
S11322101A4B1B6803F04003BA681343BB60174BA7
S11322201B6803F00403BA681343BB60134B1B68B9
S113223003F48073BA681343BB600F4ABB6813622C
S11322400F4B1B78052B05D00D4B1B78194611201D
S1132250FFF7AEFD094B1B6803F00103002B02D10D
S1132260054B02221A62FB68002B01D0FFF78AFF9C
S113227000BF1037BD4680BD00800C4038010020EF
S11322803C01002080B483B000AF174B1B699BB2A4
S11322901B029BB203F47C53FB80134B9B691B0909
S11322A01B0103F0F0039AB2FB881343FB800E4B2F
S11322B0DB691B0903F00F039AB2FB881343FB800D
S11322C0FB88B3F5827F03D3FB88B3F5017F01D18B
S11322D0012300E0002303F00103DBB218460C37AE
S11322E0BD4680BC704700BFD0FF0FE080B400AF94
S11322F000BFBD4680BC704780B400AF00BFBD4680
S113230080BC704780B586B000AF0346FB71FB7993
S1132310002B02D00020FFF74FFF1F4B1B691E4A02
S113232043F004031361FFF7ADFF0346FB75FB7D28
S1132330002B11D0194B1A68194B1340FB60174A34
S1132340FB68C2F88030154B5B6823F046033B61A1
S1132350124A3B69C2F88430FFF7C8FF30BFFFF769
S1132360CBFFFB7D002B05D00C4AFB6813600B4AA6
S11323703B695360FB79002B02D00120FFF71CFF5F
S1132380FB7983F00103DBB2002B01D0FFF7F4FEED
S113239000BF1837BD4680BD00ED00E000E100E05D
S11323A09CF1FD0080B487B000AFF860B9607A603A
S11323B0FB6803F10473DA00BB6813449B007B6180
S11323C07B697A681A6000BF1C37BD4680BC7047C1
S11323D080B485B000AFF860B9607A60FB681A68B1
S11323E0BB68DB431A407B681A43FB681A6000BF72
S11323F01437BD4680BC704780B483B000AF7860AA
S1132400044A7B68C2F81C3100BF0C37BD4680BC4F
S1132410704700BF0060004080B483B000AF034643
S11324203960FB71FB79002B0DD0FB79012B0AD0AD
S1132430FB79022B07D0FB79032B04D0FB79042B07
S113244001D0FB79052B01223B6802FA03F307490B
S1132450FA7918461346DB0013449B000B441433EB
S1132460186000BF0C37BD4680BC70470060004058
S113247080B483B000AF03463960FB71FB79002B55
S11324800DD0FB79012B0AD0FB79022B07D0FB7905
S1132490032B04D0FB79042B01D0FB79052B0122FB
S11324A03B6802FA03F30749FA7918461346DB003E
S11324B013449B000B441033186000BF0C37BD4617
S11324C080BC70470060004080B483B000AF034616
S11324D00A46FB711346BB71FB79002B0ED0FB79C6
S11324E0012B0BD0FB79022B08D0FB79032B05D0F1
S11324F0FB79042B02D0FB79052B02D1BB79032B8A
S113250000BF0C49FA791346DB0013449B000B44CB
S11325101B6823F00301BB790648FA791943134673
S1132520DB0013449B000344196000BF0C37BD4615
S113253080BC70470060004080B586B000AFB960D1
S11325407A601A460346FB731346BB7300237B6110
S1132550FB7B002B0DD0FB7B012B0AD0FB7B022BDA
S113256007D0FB7B032B04D0FB7B042B01D0FB7B2C
S1132570052B7B68072B0ED87B689B00072202FA89
S113258003F1FA7B7B689B0002FA03F31A461A48AC
S1132590FFF71EFF10E07B68083B7B617B699B00B3
S11325A0072202FA03F1FA7B7B699B0002FA03F328
S11325B01A461248FFF70CFFBB7B1A46796810488D
S11325C0FFF7F0FE97F820301A4679680D48FFF7B8
S11325D0E9FE01227B6802FA03F31846FFF70CFFB9
S11325E097F824301A4679680748FFF7DBFE00BFE6
S11325F01837BD4680BD00BF006100400461004043
S1132600086100400C6100401061004080B584B056
S113261000AFB9607B600346FB731346BB73FB7B5F
S1132620002B0DD0FB7B012B0AD0FB7B022B07D0A8
S1132630FB7B032B04D0FB7B042B01D0FB7B052B02
S1132640BB7B002B0DD07B68002B05D0FB7BB968CE
S11326501846FFF70DFF04E0FB7BB9681846FFF747
S1132660DBFEBB68072B20D82D49FA7B1346DB0021
S113267013449B000B4404331A68BB689B000F216E
S113268001FA03F3DB431340B97BBA68920001FA01
S113269002F211462248FA7B19431346DB00134425
S11326A09B0003440433196025E01D49FA7B13465B
S11326B0DB0013449B000B4408331A68BB6803F126
S11326C08043083B9B000F2101FA03F3DB4302EA3A
S11326D00301BA7BBB6803F18043083B9B0002FA09
S11326E003F30F48FA7B19431346DB0013449B00A2
S11326F0034408331960BB7B002B0DD17B68002B8E
S113270005D0FB7BB9681846FFF7B2FE04E0FB7BFB
S1132710B9681846FFF780FE00BF1037BD4680BD7C
S11327200060004080B483B000AF0346FB71FB79C6
S1132730002B06D0084B1B68074A43F001031360C3
S113274005E0054B1B68044A23F00103136000BF36
S11327500C37BD4680BC704700A0084080B487B0E9
S113276000AFF860B9607A60FB6803F10473DA00C3
S1132770BB6813449B007B617B697A681A6000BF65
S11327801C37BD4680BC704780B584B000AF78600C
S11327901A4B5B68FB600020FFF7C4FFFB6823F45F
S11327A0830323F01F03FB607B685B68FA681343B1
S11327B0FB607B681B7A1A46FB681343FB607B68EB
S11327C05B7A1A46FB681343FB607B68DB68FA6834
S11327D01343FB607B681B8A1A46FB681343FB6048
S11327E0064AFB6853607B681B78002B02D00120EB
S11327F0FFF798FF00BF1037BD4680BD00A008401A
S113280080B485B000AF78600D4B5B68FB60FB68FB
S113281023F48033FB607B68002B08D0B3F5803F42
S113282000D005E0FB6843F48033FB6000E000BFA8
S1132830034AFB68536000BF1437BD4680BC704731
S113284000A0084080B483B000AF03460A46FB8072
S113285013467B717B79002B06D0094B9A68FB8861
S1132860074913438B6006E0054B9A68FB88DB43FA
S1132870034913408B6000BF0C37BD4680BC7047D2
S113288000A0084080B584B000AFF860B96013467A
S1132890FB71FB68072B00F2B38001A252F823F00E
S11328A0C1280000E928000011290000392900008E
S11328B06129000089290000B1290000D9290000FC
S11328C0BB681F2B06DCBB68FA7919464F48FFF733
S11328D045FF96E0BB68203BBB60BB68FA791946AC
S11328E04B48FFF73BFF8CE0BB681F2B06DCBB6843
S11328F0FA7919464748FFF731FF82E0BB68203B6D
S1132900BB60BB68FA7919464348FFF727FF78E0B4
S1132910BB681F2B06DCBB68FA7919463F48FFF7F2
S11329201DFF6EE0BB68203BBB60BB68FA791946AB
S11329303B48FFF713FF64E0BB681F2B06DCBB6852
S1132940FA7919463748FFF709FF5AE0BB68203B7C
S1132950BB60BB68FA7919463348FFF7FFFE50E0C5
S1132960BB681F2B06DCBB68FA7919462F48FFF7B2
S1132970F5FE46E0BB68203BBB60BB68FA791946AC
S11329802B48FFF7EBFE3CE0BB681F2B06DCBB6863
S1132990FA7919462748FFF7E1FE32E0BB68203B8D
S11329A0BB60BB68FA7919462348FFF7D7FE28E0D5
S11329B0BB681F2B06DCBB68FA7919461F48FFF772
S11329C0CDFE1EE0BB68203BBB60BB68FA791946AC
S11329D01B48FFF7C3FE14E0BB681F2B06DCBB6873
S11329E0FA7919461748FFF7B9FE0AE0BB68203B9D
S11329F0BB60BB68FA7919461348FFF7AFFE00E0E5
S1132A0000BF00BF1037BD4680BD00BF40A00840D6
S1132A1050A0084044A0084054A0084048A00840E2
S1132A2058A008404CA008405CA00840CCA0084036
S1132A30B4A00840D0A00840B8A00840D4A00840E2
S1132A40BCA00840D8A00840C0A0084080B487B00B
S1132A5000AFF860B9607A60FB68072B00F2AC80C5
S1132A6001A252F823F000BF892A0000AD2A000019
S1132A70D12A0000F52A0000192B0000412B000088
S1132A80692B0000912B00004E4B1B6C7B61BB68D3
S1132A90DB437A6913407B61BA687B6813407A69C7
S1132AA013437B61474A7B69136486E0454B5B6C47
S1132AB07B61BB68DB437A6913407B61BA687B68DE
S1132AC013407A6913437B613E4A7B69536474E023
S1132AD03C4B9B6C7B61BB68DB437A6913407B6135
S1132AE0BA687B6813407A6913437B61354A7B6912
S1132AF0936462E0334BDB6C7B61BB68DB437A69D4
S1132B0013407B61BA687B6813407A6913437B6125
S1132B102C4A7B69D36450E02A4BD3F8CC307B61D8
S1132B20BB68DB437A6913407B61BA687B681340F6
S1132B307A6913437B61234A7B69C2F8CC303CE059
S1132B40204BD3F8D0307B61BB68DB437A691340F8
S1132B507B61BA687B6813407A6913437B61194AC5
S1132B607B69C2F8D03028E0164BD3F8D4307B61AF
S1132B70BB68DB437A6913407B61BA687B681340A6
S1132B807A6913437B610F4A7B69C2F8D43014E03D
S1132B900C4BD3F8D8307B61BB68DB437A691340B4
S1132BA07B61BA687B6813407A6913437B61054A89
S1132BB07B69C2F8D83000E000BF00BF1C37BD46B7
S1132BC080BC704700A0084080B487B000AFF860B4
S1132BD0B9607A60FB68072B00F2AC8001A252F85E
S1132BE023F000BF052C0000292C00004D2C000010
S1132BF0712C0000952C0000BD2C0000E52C000079
S1132C000D2D00004E4B1B6D7B61BB68DB437A6965
S1132C1013407B61BA687B6813407A6913437B6114
S1132C20474A7B69136586E0454B5B6D7B61BB68F6
S1132C30DB437A6913407B61BA687B6813407A6925
S1132C4013437B613E4A7B69536574E03C4B9B6D47
S1132C507B61BB68DB437A6913407B61BA687B683C
S1132C6013407A6913437B61354A7B69936562E05B
S1132C70334BDB6D7B61BB68DB437A6913407B615B
S1132C80BA687B6813407A6913437B612C4A7B6979
S1132C90D36550E02A4BD3F8B4307B61BB68DB4387
S1132CA07A6913407B61BA687B6813407A6913437D
S1132CB07B61234A7B69C2F8B4303CE0204BD3F8F3
S1132CC0B8307B61BB68DB437A6913407B61BA68C7
S1132CD07B6813407A6913437B61194A7B69C2F8A4
S1132CE0B83028E0164BD3F8BC307B61BB68DB43BB
S1132CF07A6913407B61BA687B6813407A6913432D
S1132D007B610F4A7B69C2F8BC3014E00C4BD3F8EA
S1132D10C0307B61BB68DB437A6913407B61BA686E
S1132D207B6813407A6913437B61054A7B69C2F867
S1132D30C03000E000BF00BF1C37BD4680BC7047F8
S1132D4000A0084080B483B000AF7860064B5B6895
S1132D5023F4E01204497B6813434B6000BF0C3733
S1132D60BD4680BC704700BF00A0084080B487B057
S1132D7000AFF860B9607A60FB6803F10473DA00AD
S1132D80BB6813449B007B617B697A681A6000BF4F
S1132D901C37BD4680BC704780B582B000AF7860F8
S1132DA00B46FB70FB78002B01D000F0EFFA7B6838
S1132DB01B7D184600F022F97B685B789B007A68DB
S1132DC092781A437B689B681A437B68DB681A43D2
S1132DD07B68DB785B021A437B681B799B021A438E
S1132DE07B685B795B031A437B689B795B041A43BA
S1132DF07B68DB791B041A437B685B7C9B053F493A
S1132E0013430B607B681B780021184600F0D6F84A
S1132E107B681B7E1A467B68DB7E5B001A437B68FB
S1132E205B7E9B001A437B689B7E9B011A437B68F5
S1132E301B7F1B011A437B685B7F1B021A437B6861
S1132E409B7F9B021A437B681B6A1A437B6893F837
S1132E5024301B051A437B6893F825309B051A43DD
S1132E607B689B6A254913438B607B689B8D1A465C
S1132E707B6893F83B309B021A437B6893F83C30A1
S1132E809B031A437B6893F83D309B041A437B6889
S1132E9093F83E309B051A437B6893F834305B000B
S1132EA01A437B6893F835309B001A437B6893F888
S1132EB03630DB001A437B6893F837301B011A4322
S1132EC07B6893F838305B011A437B6893F8393098
S1132ED09B011A437B6893F83A30DB01074913439B
S1132EE0CB607B681B6B184600F0F2F97B681A7C98
S1132EF0024B1A6100BF0837BD4680BD00C00840C0
S1132F0080B588B000AF786039600023FB6101238D
S1132F10BB613F237B617B68002B03D12548FEF70F
S1132F2099FD78603B68002B0CD03A687B689A4224
S1132F3000BF07E0FB690133FB610122FB6902FA70
S1132F4003F3BB613B68BA6902FB03F37A68B2FB23
S1132F50F3F27B6901339A4202D9FB69062BE9D962
S1132F603B68BA6902FB03F37A68B2FBF3F3013BF3
S1132F707B61114B5B6823F47F2323F4E0633B61A3
S1132F80FB691A027B691B0313433A6913433B61D0
S1132F90094A3B6953607B690133BA6902FB03F355
S1132FA07A68B2FBF3F3FB60FB6818462037BD4632
S1132FB080BD00BF80062E0000C0084080B584B0EC
S1132FC000AF03460A46FB711346BB710A4B1B68EC
S1132FD023F00303FB60FB79FA681343FB60064AA2
S1132FE0FB681360BB79002B01D000F081F900BFAE
S1132FF01037BD4680BD00BF00C0084080B485B016
S113300000AF0346FB71094B5B6823F44003FB608C
S1133010FB799B05FA681343FB60044AFB68536021
S113302000BF1437BD4680BC704700BF00C00840D5
S113303080B485B000AF03460A46FB711346BB71EA
S1133040FB79002B0FD0012B00D01AE00F4B5B68EB
S113305023F00303FB60BB79FA681343FB600B4A5C
S1133060FB6853600DE0094B5B6823F07003FB6061
S1133070BB791B01FA681343FB60044AFB68536085
S113308000BF00BF1437BD4680BC704700C0084075
S113309080B584B000AF78600023FB600AE0FB6871
S11330A05B017A681344F968184600F00BF8FB6872
S11330B00133FB60FB680F2BF1D900BF1037BD460D
S11330C080BD000080B584B000AF786039607B6853
S11330D05B68B3F5C03F7B681B7A032B0AD13B685E
S11330E00C2B07D03B680D2B04D03B680E2B01D072
S11330F03B680F2B00BF7B681B7A032B0AD13B680C
S1133100002B07D03B68012B04D03B68022B01D075
S11331103B68032B00BF394B9A6B3B685B00032170
S113312001FA03F3DB431340FB607B681B7A1A4606
S11331303B685B0002FA03F3FA681343FB602F4A0F
S1133140FB6893633B68D8B27B68D97B7B681A7C45
S11331507B685B8A00F05AF87B685B7B5A047B6867
S11331609B7B9B0413437A68D28A13437A68128B3D
S11331701A437B685B681A437B685B7ADB041F49EC
S11331801A433B682C331B010B4404331A607B68DD
S1133190DA697B689B7A5B041A437B681B7B9B041C
S11331A01A437B68DB7ADB0414491A433B681B012E
S11331B00B4403F532731A603B68D8B27B68998A72
S11331C07B685B8B1A4600F045F87B689B781A464F
S11331D039680B48FFF7CAFD7B685B781A46396883
S11331E00848FFF7C3FD7B681B781A463968064810
S11331F0FFF7BCFD00BF1037BD4680BD00C00840CE
S11332004CC0084054C0084018C0084090B482B074
S113321000AF0446084611461A462346FB7103468E
S1133220BB710B467B7113467B80BA797B799B011A
S113323042EA03017B885A030548FB790A432C338D
S11332401B0103441A6000BF0837BD4690BC704799
S113325000C0084080B485B000AF0346FB710B4644
S1133260BB8013467B80194AFB792C331B01134422
S113327004331B6823F47F6323F00F03FB60BB88D4
S1133280FA681343FB60114AFB792C331B01134486
S11332900433FA681A600D4AFB791B01134403F5E1
S11332A032731B681B0C1B04FB607B88FA68134396
S11332B0FB60064AFB791B01134403F53273FA6879
S11332C01A6000BF1437BD4680BC704700C0084078
S11332D080B483B000AF7860044A7B6803F00F03C6
S11332E0136300BF0C37BD4680BC704700C0084064
S11332F080B400AF00BF0A4B1B6D03F02003002B0A
S1133300F9D1074B01225A6100BF054B1B6D03F035
S11333102003002BF9D100BFBD4680BC704700BF1D
S113332000C0084080B400AF00BF0A4B1B6D03F01F
S11333302003002BF9D1074B02225A6100BF054B31
S11333401B6D03F02003002BF9D100BFBD4680BCE8
S1133350704700BF00C0084080B400AF00BF0A4BF4
S11333601B6D03F02003002BF9D1074B08225A618F
S113337000BF054B1B6D03F02003002BF9D100BFE8
S1133380BD4680BC704700BF00C0084080B483B015
S113339000AF384B0022DA64364B374A5A64354B57
S11333A0DB68344A43F00103D36000BF314B1B6D2B
S11333B003F02003002BF9D12E4B0A225A612D4B26
S11333C000221A602B4B00229A602A4B0022DA60FA
S11333D0284B00221A61274B00229A61254B0022B8
S11333E09A63244B0022DA63224B00225A6500239D
S11333F07B6019E01F4A7B682C331B0113440022B5
S11334001A601C4A7B682C331B01134404330022CA
S11334101A60184A7B681B01134403F532730022B7
S11334201A607B6801337B607B680F2BE2D9002331
S11334307B600FE00F4A7B684033002142F8331071
S11334400C4A7B684033DB00134400225A607B68DB
S113345001337B607B680F2BECD900BF054B1B6DE0
S113346003F02003002BF9D100BF0C37BD4680BC0C
S1133470704700BF00C00840FFFF7F0080B485B0E4
S113348000AF786039607B68002B02D0012B03D039
S113349008E0064BFB6002E0054BFB6000BFFB68E5
S11334A03A681A601437BD4680BC7047080008406B
S11334B00C00084080B485B000AF78601A4B5B699B
S11334C0DBB29B00DBB203F03C03FB73164B1B69BE
S11334D09B09DBB203F00303DAB2FB7B1343FB73F8
S11334E07B68FA7B9A70104B1B69DBB203F03F03D5
S11334F0DAB27B685A700C4B9B691B09DBB21B0167
S1133500FB73094BDB691B09DBB203F00F03DAB26F
S1133510FB7B1343FB737B68FA7B1A7000BF143781
S1133520BD4680BC704700BFD0FF0FE080B58AB0B5
S113353000AF0346FB71FB7903F00103002B0ED0AF
S1133540544B1B889BB201339AB2524B1A8000F041
S113355059F9514B1B68002B01D000F03BF9FB7962
S113356003F00203002B00F0918000233B6200F083
S1133570C7F9F861494B1B68FA69D31A3B62FEF735
S1133580DFFD786260E03B6ABB61434B1B687B6193
S1133590414B1B683B61414AFB6913600FE07B6947
S11335A01A793B691B799A4201D93B697B613B6972
S11335B05B69BA69D31ABB613B699B683B613B6930
S11335C0002B04D03B695B69BA699A42E7D2786AF6
S11335D0FEF7C5FD7B695B693A6AD31A3B627B6976
S11335E000225A61FEF7ACFD7862786900F0B4F805
S11335F0786AFEF7B4FD7B691B69002B0BD0FEF7DC
S11336009FFD78627B691B691946786900F048F868
S1133610786AFEF7A4FD7B69DB68002B06D07B6922
S1133620DB687A69126811467869984700F068F98E
S1133630F860FA68FB69D31A3A6A13443B62FB6880
S1133640FB61FEF77DFD7862134B1B68002B05D0F0
S1133650114B1B685B693A6A9A4294D20E4B1B6801
S1133660002B0DD00C4B1B6859690B4B1B683A6A35
S11336708A1A5A61094AFB69136000F0ABF802E048
S1133680022000F0D3F9786AFEF769FD00BF2837FD
S1133690BD4680BD3E0100204001002044010020C1
S11336A080B487B000AF786039603B687B617B6829
S11336B07A695A61274B1B68002B40D000233B6179
S11336C0244B1B68FB600CE0FB685B697A69D31AC6
S11336D07B617B687A695A61FB683B61FB689B6824
S11336E0FB60FB68002B13D0FB685B697A699A4224
S11336F0EAD2FB685B69002BE6D0FB685B697A69F8
S11337009A4205D17B681A79FB681B799A42DBD807
S11337103B69002B03D03B697A689A6002E00D4A4A
S11337207B6813607B68FA689A60FB68002B0CD096
S1133730FB685A697B69D21AFB685A6105E0054A3D
S11337407B6813607B6800229A6000BF1C37BD460B
S113375080BC70474001002080B485B000AF786021
S11337600023FB601A4B1B68BB6004E0BB68FB6072
S1133770BB689B68BB60BB68002B03D0BA687B68DE
S11337809A42F3D1BA687B689A4201D0022319E0C5
S1133790FB68002B04D07B689A68FB689A6003E09E
S11337A07B689B680A4A13607B689B68002B08D07F
S11337B07B689B6859697B685A697B689B680A4483
S11337C05A61002318461437BD4680BC704700BFB9
S11337D04001002080B582B000AF084B1B685A69D5
S11337E0074B1B6813447B60022000F0F3F87868F1
S11337F000F0A8F800BF0837BD4680BD4001002096
S11338004401002080B582B000AF00F079F8786000
S1133810164B1B68002B22D0154B1B687A68D31AF1
S11338203B60124B1B685B693A689A420BD80F4B9A
S11338301B6859690D4B1B683A688A1A5A610C4A0D
S11338407B6813600EE0094B1B685B697A68D31AC6
S1133850074A1360054B1B6800225A6102E0044AC0
S11338607B68136000BF0837BD4680BD400100205F
S11338704401002080B400AF024B5B681846BD468B
S113388080BC70470000084080B483B000AF78600B
S1133890034A7B68936100BF0C37BD4680BC704708
S11338A00000084080B483B000AF7860054BDA694B
S11338B07B68DB4303491340CB6100BF0C37BD4633
S11338C080BC70470000084080B483B000AF7860CB
S11338D0054BDA6904497B681343CB6100BF0C379D
S11338E0BD4680BC704700BF0000084080B400AFF4
S11338F0024B1B691846BD4680BC70470000084057
S113390080B582B000AFFFF7B5FF78600C4B1B7831
S1133910DBB27B80FFF7EAFF034603F00103002BD1
S113392005D0FFF7A7FF78607B8801337B807B8815
S11339301A067B68134318460837BD4680BD00BF8E
S11339404801002080B584B000AF7860FFF7D8FF4D
S1133950B8607B68FB60FFF7C9FF034603F004030C
S1133960002B0DD11A4B1B68B968184600F0E0F81B
S11339700346022B04D8164B1B68BA689A4222D11C
S1133980B968F86800F0D4F80346012B02D8BB6884
S11339900233FB600E4AFB6813600D4B1A68BB6868
S11339A0D31AB3F1807F0BD2094B1B6823F07F43FA
S11339B019460120FFF762FD022000F00BF802E037
S11339C0022000F033F800BF1037BD4680BD00BFB1
S11339D04C01002080B584B000AF0346FB71002386
S11339E0FB60FB7903F00103002B03D0FB6843F079
S11339F00103FB60FB7903F00203002B0DD00A4B9B
S1133A001B78002B05D00420FFF73EFF064B002255
S1133A101A70FB6843F00403FB60F868FFF754FF77
S1133A2000BF1037BD4680BD4D00002080B584B076
S1133A3000AF0346FB710023FB60FB7903F0010335
S1133A40002B03D0FB6843F00103FB60FB7903F018
S1133A500203002B06D0FB6843F00403FB60054B14
S1133A6001221A70F868FFF71DFF00BF1037BD462A
S1133A7080BD00BF4D00002080B584B000AF00239E
S1133A80FB730023BB60FEF75BFB7860FFF72EFF40
S1133A9038603B6803F00103002B27D0224B1B78CE
S1133AA0DBB21B06B3F17F4F03D1FB7B43F0010371
S1133AB0FB731D4B1B78DBB20133DAB21A4B1A705D
S1133AC01A4B1B68BB60184B1B78DBB21B061A46EB
S1133AD0BB689B1ABB60BB68B3F1807F06D2B96830
S1133AE00120FFF7CBFC0220FFF774FF3B6803F0D3
S1133AF00403002B03D0FB7B43F00203FB733B68FE
S1133B0003F005031846FFF7BFFEFB7B002B03D031
S1133B10FB7B1846FFF70AFD7868FEF720FB00BF21
S1133B201037BD4680BD00BF480100204C01002075
S1133B3080B483B000AF786039607A683B68D31A88
S1133B4018460C37BD4680BC7047000080B400AFF7
S1133B50044B1B680133034A136000BFBD4680BC9D
S1133B60704700BF7801002080B485B000AF786052
S1133B70074B1B68FB6000BF054B1A68FB68D31A30
S1133B807A689A42F8D800BF1437BD4680BC7047A3
S1133B907801002080B584B000AF244B1B78002B43
S1133BA00AD0234B1B68234A1360214B1B68224A0B
S1133BB013601E4B00221A70204B1B78002B07D178
S1133BC01D4B1A681B4B1B68D31AB3F52F7F24D9DE
S1133BD01B4B1B68102B03DC184B1B78002B03D0EA
S1133BE0174B01221A6004E0154B1B680133144A79
S1133BF01360144B1B68124A12681344381D124A8E
S1133C00082100F03BFD3B1D1846FDF7DFF80B4B88
S1133C1000221A70054B01221A70054B1B68064AD4
S1133C20136000BF1037BD4680BD00BF54000020A4
S1133C30780100207001002074010020550000204C
S1133C4064010020580000208859000080B582B02B
S1133C5000AF0346FB71FA7934491346DB009B1A23
S1133C609B000B440C331B781846FA792F491346F2
S1133C70DB009B1A9B000B441A331B780122194664
S1133C80FEF700FE4FF4FA70FFF76EFFFA7927494A
S1133C901346DB009B1A9B000B440C331B7818461D
S1133CA0FA7922491346DB009B1A9B000B441A3312
S1133CB01B7800221946FEF7E5FDFA791B491346E5
S1133CC0DB009B1A9B000B4408331B781846FA79D7
S1133CD016491346DB009B1A9B000B4416331B78D2
S1133CE001221946FEF7CEFD4FF4FA70FFF73CFFB0
S1133CF000F05CF9FA790D491346DB009B1A9B002E
S1133D000B4408331B781846FA7908491346DB003C
S1133D109B1A9B000B4416331B7800221946FEF7AE
S1133D20B1FD00BF0837BD4680BD00BF7457000019
S1133D3080B584B000AF78607B68B3F1FF3F1BD1DE
S1133D40354B1B781946354A0B46DB005B1A9B0042
S1133D50134403331B7818462F4B1B7819462F4AFC
S1133D600B46DB005B1A9B00134411331B780122C2
S1133D701946FEF787FD4CE07B68302B08D07B6842
S1133D809B00274A82FB0312D210DB17D31A00E0F0
S1133D900323BB602149BA681346DB009B1A9B00CE
S1133DA00B4403331B7818461C49BA681346DB00DE
S1133DB09B1A9B000B4411331B7801221946FEF712
S1133DC061FD0023FB601DE0FA68BB689A4216D0CF
S1133DD01249FA681346DB009B1A9B000B44033319
S1133DE01B7818460D49FA681346DB009B1A9B00A2
S1133DF00B4411331B7800221946FEF743FDFB6880
S1133E000133FB60FB68032BDEDDBB68DAB2024BD7
S1133E101A701037BD4680BD8D0100207457000014
S1133E20ABAAAA2A80B582B000AF334B1B78002B13
S1133E300AD0324B1B68324A1360304B1B68314A3C
S1133E4013602D4B00221A702F4B1B78002B0ED1C0
S1133E502C4B1A682A4B1B68D31A2C4A12686FF031
S1133E60E00101FB02F202F6980293423BD900F012
S1133E70D1FB03465A4203F0030302F0030258BF86
S1133E8053427B602248FCF7A1FF22497A6813461B
S1133E90DB009B1A9B000B441B7818461D497A686B
S1133EA01346DB009B1A9B000B440E331B78012244
S1133EB01946FEF7E7FC184A7B681360124B002290
S1133EC01A700D4B01221A70144B1B68182B05DC59
S1133ED0124B1B680133114A136002E0104B01229C
S1133EE01A7000F055F9054B1B68064A136000BFB1
S1133EF00837BD4680BD00BF560000207801002071
S1133F00680100206C0100205700002054010020AB
S1133F108C590000745700006001002058010020F3
S1133F207D01002080B584B000AF78607B68B3F178
S1133F30FF3F0CD0194B1B68002B08D17B68DB00BA
S1133F40174A82FB0312D210DB17D31A01E0154B78
S1133F501B68BB600023FB600FE0FA68BB689A42F1
S1133F6004DC0121F868FCF79DFF03E00021F868F8
S1133F70FCF798FFFB680133FB60FB68072BECDD63
S1133F80094ABB681360074ABB681360034B0022ED
S1133F901A6000BF1037BD4680BD00BF500000202E
S1133FA0ABAAAA2A500100205401002080B500AF1A
S1133FB0324B1B781A46324B1B689A425CD12F4B0A
S1133FC01B7819462F4A0B46DB005B1A9B001344EF
S1133FD01B781846294B1B7819462A4A0B46DB00E6
S1133FE05B1A9B0013440E331B7800221946FEF71C
S1133FF049FC254B1B680133234A136000F0C8F8C1
S11340004FF4FA70FFF7B0FD1C4B1B7819461D4A9C
S11340100B46DB005B1A9B0013441B781846174BB6
S11340201B781946174A0B46DB005B1A9B001344A6
S11340300E331B7801221946FEF724FC4FF4FA7064
S1134040FFF792FD0D4B1B7819460E4A0B46DB0019
S11340505B1A9B0013441B781846084B1B781946BF
S1134060084A0B46DB005B1A9B0013440E331B7893
S113407000221946FEF706FC00BF80BD8D0100201A
S113408060010020745700005C01002080B500AF7F
S113409004231846212301221946FEF7F3FB0223C9
S11340A01846222301221946FEF7ECFB0423184686
S11340B0222301221946FEF7E5FB06231846212395
S11340C001221946FEF7DEFB00BF80BD80B586B035
S11340D000AF264B1B68642202FB03F2244B1B68CF
S11340E092FBF3F37B61234B3B6107F10C037A6989
S11340F02149184600F0F6FA3B1D3969184600F0CC
S113410020FB7B69092B04DC3B1D1C49184600F08D
S113411009FB07F10C023B1D1146184600F002FB97
S11341207B69642B03D11648FCF750FE05E03B1D68
S11341301846FCF74BFEFFF7A9FF41F28830FFF762
S113414013FDFCF781FC0A4B00221A60074B002286
S11341501A600C4B00221A700B4B00221A700B4B86
S113416001221A7000BF1837BD4680BD5C010020D3
S113417058010020945900009C590000A0590000E7
S1134180A45900007D0100207C010020550000207E
S113419080B500AF012227210520FEF773FB094BF0
S11341A01B68642202FB03F2074B1B681344184686
S11341B0FCF750FD054B1B78002B01D0FFF786FF61
S11341C000BF80BD580100205C0100207D0100205B
S11341D080B483B000AF0346FB7197F90730002B1E
S11341E00BDBFB7903F01F02064997F907305B09E3
S11341F0012000FA02F241F8232000BF0C37BD462B
S113420080BC704700E100E080B483B000AF034697
S1134210FB7197F90730002B0CDBFB7903F01F02CD
S1134220074997F907305B09012000FA02F260336D
S113423041F8232000BF0C37BD4680BC704700BF47
S113424000E100E080B483B000AF03463960FB7145
S113425097F90730002B0ADB3B68DAB20C4997F96F
S113426007305201D2B20B4483F800230AE03B68C2
S1134270DAB20849FB7903F00F03043B5201D2B2CE
S11342800B441A7600BF0C37BD4680BC704700BF94
S113429000E100E000ED00E080B582B000AF78609E
S11342A07B68013BB3F1807F01D301230FE00A4A0D
S11342B07B68013B536007214FF0FF30FFF7C2FFDB
S11342C0054B00229A60044B07221A60002318460B
S11342D00837BD4680BD00BF10E000E080B400AFE9
S11342E0034BDB6C1B0EDBB21846BD4680BC70472B
S11342F0B081E00F80B483B000AF7860044A7B687B
S1134300C2F81C3100BF0C37BD4680BC704700BFEB
S11343100060004080B584B002AF396011461A468F
S11343200346FB710B46BB7113467B71BA79F8796E
S11343303B7C01937B79009313463A683968FEF716
S1134340FBF800BF0837BD4680BD000080B582B0D1
S113435000AF0E4B01221A64FFF7C0FF0346FB7146
S11343603B1D1846FFF7A6F8FB790F2B0AD93B79BA
S1134370022B07D9064B1B6823F05003044A43F071
S11343801003136000BF0837BD4680BD00000C4019
S1134390C0800C4080B500AF4FF40070FFF7AAFF57
S11343A0024B01221A7000BF80BD00BF8C010020A7
S11343B080B500AF4FF48060FFF79CFF024B0122F1
S11343C01A7000BF80BD00BF7C01002080B582B0A0
S11343D002AF01211648FDF7D9FA00230122092171
S11343E00120FEF713F9002301220A210120FEF720
S11343F00DF9012300930123002209210120FFF775
S113440089FF01230093012300220A210120FFF7E1
S113441081FF0120FFF7F8FE0120FFF7D9FE0B20F2
S1134420FFF7F2FE0B20FFF7D3FE00BFBD4680BDB1
S113443000D2040080B400AF00BFBD4680BC70470A
S113444080B400AF034B01221A7000BFBD4680BC8C
S1134450704700BF7E01002080B582B000AF2049C4
S11344602048FCF761F9204B1B78DBB2012B06D006
S1134470022B0ED0002BF6D1FCF78CFA2EE0002094
S1134480FCF788F80020FCF789FB174B02221A700E
S113449024E0FCF77FFAFCF7CDF97860134B1B7826
S11344A083F00103DBB2002B05D07868FFF73AFDF7
S11344B0FFF770FB11E0FFF7B5FC7868FFF738FCF5
S11344C00B4B1B78DBB2002B04D00A4B1B7818462D
S11344D0FFF7BCFB064B00221A7000BFC3E700BF06
S11344E041440000354400007E0100207C0100208E
S11344F08C0100208D01002098B500AFFFF726FF46
S1134500002000F02FF903460C46184600F05EF830
S11345100120FCF746FAFFF759FF0848FDF79AFA1D
S11345200246074BA3FB02239B091846FFF7B4FE80
S1134530FFF792FF0023184698BD00BF70000200E9
S1134540D34D62100028B8BF4042704708B5074BEE
S1134550044613B10021AFF30080054B1868836A49
S113456003B19847204600F037FD00BF000000006B
S1134570A859000070B500250C4E0D4CA41BA410C6
S1134580A54209D100F02AFD00250A4E0A4CA41BBD
S1134590A410A54205D170BD56F8253098470135C1
S11345A0EEE756F8253098470135F2E7C0000020C1
S11345B0C0000020C0000020C400002003460244C4
S11345C0934200D1704703F8011BF9E738B50D4B4E
S11345D005461C68A36B7BB9182000F0EFF80A4A63
S11345E00A4BA063C0E90023094B012283600B231B
S11345F083810023C0E904230022A36B1D615A6157
S113460038BD00BF5C0000200E33CDAB34126DE624
S1134610ECDE050038B5134B1C68A36B7BB918207E
S113462000F0CCF8104A114BA063C0E90023104BF2
S1134630012283600B2383810023C0E90423A16B3F
S11346400C480A694B6950430B4C04FB0300A2FB62
S113465004230344541C43F10005C1E9044525F037
S1134660004038BD5C0000200E33CDAB34126DE643
S1134670ECDE05002DF451582D7F954C0CB430B56B
S1134680174B0C1E9DB01D6808DA8B234FF0FF30CA
S11346902B601DB0BDE8304002B070474FF4027388
S11346A0ADF814300CBF234604F1FF330493079391
S11346B04FF6FF7302900690ADF81630209A21ABA6
S11346C002A92846019300F081F9431CBCBF8B2347
S11346D02B60002CDDD00022029B1A70D9E700BFAA
S11346E05C0000200EB46FF0004100B59CB01DAB1F
S11346F002900690079104910848094953F8042B45
S11347000591006802A9019300F060F90022029B60
S11347101A701CB05DF804EB03B070475C00002015
S11347200802FFFF034610B51A785C1C3AB9013B36
S113473011F8012B03F8012F002AF9D110BD2346EB
S1134740F2E7034611F8012B03F8012B002AF9D1F3
S11347507047034613F8012B002AFBD1181A0138BD
S1134760704700001FB50B4B0446002269461868C9
S113477000F012F8002805DA4FF0FF324FF0FF3353
S1134780CDE90023DDE900010CB1C4E9000104B066
S113479010BD00BF5C00002038B50023064C054660
S11347A008461146236000F001FC431C02D1236833
S11347B003B12B6038BD00BF90010020024B0146BD
S11347C0186800F04FB800BF5C00002038B50546FB
S11347D0002943D051F8043C0C1F002BB8BFE41847
S11347E000F0B4FB1E4A1368104633B963601460CA
S11347F02846BDE8384000F0AABBA3420BD9216883
S11348006218934201BF1A685B68521822606360A1
S11348100460EDE713465A680AB1A242FAD919684E
S11348205818A0420BD120680144581882421960DC
S1134830DED110685268014419605A60D8E702D981
S11348400C232B60D4E7206821188A4201BF116829
S113485052680918216062605C60C9E738BD00BF16
S11348608001002070B5CD1C25F0030508350C2D02
S113487038BF0C25002D064601DBA94203D90C23C1
S11348803360002070BD00F061FB214A14682146AA
S113489091B9204C23681BB9304600F015FB206009
S11348A02946304600F010FB431C24D10C2330462B
S11348B0336000F04CFBE4E70B685B1B18D40B2B54
S11348C00FD90B60CC18CD50304600F040FB04F1FA
S11348D00B00231D20F00700C31AD3D05A42E25024
S11348E0D0E74B688C4216BF636013600C46EBE75D
S11348F00C464968CCE7C41C24F00304A04205D04C
S1134900211A304600F0E0FA0130CFD02560DBE711
S113491080010020840100202DE9F0478E68824642
S11349209E420C469046994637D88A8912F4906F75
S113493031D00223256809696F1A656905EB4505BD
S113494095FBF3F509F101033B449D4238BF1D4635
S1134950530530D52946FFF785FF064650B90C2389
S11349604FF0FF30CAF80030A38943F04003A3811D
S1134970BDE8F0873A46216900F0C4FAA38923F41C
S1134980906343F08003A38126613E4426604E4633
S11349906561ED1BA5604E4500D94E463246414641
S11349A0206800F0BAFAA36800209B1BA360236868
S11349B01E442660DCE72A4600F0CAFA06460028B0
S11349C0E2D121695046FFF701FFC8E72DE9F04F16
S11349D09DB003938B8980461D060C4616460FD561
S11349E00B696BB94021FFF73DFF2060206128B9B6
S11349F00C23C8F800304FF0FF30C7E04023636158
S1134A000023099320238DF8293030234FF0010B24
S1134A108DF82A3037463D4615F8013B0BB1252B5E
S1134A203ED1B7EB060A0BD05346324621464046E8
S1134A30FFF772FF013000F0A480099B53440993EF
S1134A403B78002B00F09D8000234FF0FF32CDE92E
S1134A500523049307938DF853301A932F460522A8
S1134A6017F8011B4F4800F03FFA049BD0B9D90650
S1134A7044BF20228DF853201A0744BF2B228DF8FF
S1134A8053202A782A2A15D02F4600200A25079A6F
S1134A90394611F8013B303B092B4DD9B8B10FE031
S1134AA02F46B8E73F4A3D46801A0BFA00F01843F8
S1134AB00490D3E7039A111D12680391002A01DBC5
S1134AC0079204E0524243F00203079204933B78B6
S1134AD02E2B0CD17B782A2B33D1039B02371A1D42
S1134AE01B680392002BB8BF4FF0FF3305932E4D84
S1134AF003223978284600F0F7F938B14023401BE7
S1134B0003FA00F0049B0137034304933978062227
S1134B1026487E1C8DF8281000F0E6F9002838D0CD
S1134B20234B13BB039B073323F00703083303937F
S1134B30099B4B4409936DE705FB023201200F46A4
S1134B40A6E700230A25194601370593384610F8CD
S1134B50012B303A092A03D9002BC8D00591C6E7A6
S1134B6005FB012101230746F0E703AB009322462E
S1134B70104B04A94046AFF30080B0F1FF3F8146DB
S1134B80D6D1A3895B063FF536AF09981DB0BDE8C1
S1134B90F08F03AB00932246064B04A9404600F075
S1134BA081F8EAE7AC590000B2590000B659000098
S1134BB000000000194900002DE9F04791461F4606
S1134BC08A680B6906469342B8BF1346C9F8003099
S1134BD091F843200C46DDF8208012B10133C9F866
S1134BE000302368990642BFD9F800300233C9F86F
S1134BF00030256815F0060507D104F1190AE368A9
S1134C00D9F800209B1AAB4229DC94F8433022687F
S1134C10003318BF012392062ED404F1430239460F
S1134C203046C047013021D02368E56803F006030D
S1134C30042B18BF0025D9F800204FF0000908BF45
S1134C40AD1AA368226908BF25EAE5759342C4BF7B
S1134C509B1AED181A344D451AD1002008E001239F
S1134C60524639463046C047013003D14FF0FF3039
S1134C70BDE8F0870135C2E73020E11881F8430030
S1134C805A1C94F845102244023382F84310C4E7B6
S1134C900123224639463046C0470130E6D009F1A7
S1134CA00109D8E72DE9F04301F1430C0C46097ED4
S1134CB085B06E291746064698460C9A00F0B380D4
S1134CC022D8632936D00AD8002900F0B98058299F
S1134CD000F0838004F1420584F8421032E0642934
S1134CE001D06929F6D120681368050603F104018F
S1134CF02AD51B681160002B03DA2D225B4284F84D
S1134D0043206F480A2239E0732900F09D8008D8B7
S1134D106F2920D07029DDD1236843F0200323605C
S1134D2003E0752917D07829D4D17823654884F80D
S1134D30453055E0136804F14205191D1B681160E4
S1134D4084F8423001238CE01B6810F0400F11609E
S1134D5018BF1BB2CFE713682568181D106028061A
S1134D6001D51B6802E06806FBD51B886F2914BFB8
S1134D700A2208225248002184F843106568002D55
S1134D80A560C0F29580216821F004012160002B08
S1134D903DD1002D40F08E806546082A0BD1236852
S1134DA0DB0708D5236962689A42DEBF302305F821
S1134DB0013C05F1FF35ACEB05032361CDF8008020
S1134DC03B4603AA21463046FFF7F6FE01304DD19B
S1134DD04FF0FF3005B0BDE8F083394884F8451042
S1134DE0136821681D1D1B6815600A060BD5CA07C8
S1134DF044BF41F0200121601BB9226822F0200247
S1134E0022601022B7E74D0648BF9BB2EFE7654624
S1134E10B3FBF2F102FB1133C35C05F8013D0B4611
S1134E200029F5D1B9E713682568181D6169106078
S1134E3028061B6801D5196002E06A06FBD51980B3
S1134E40002365462361B9E71368191D11601D68C5
S1134E5062680021284600F047F808B1401B6060F2
S1134E6063682361002384F84330A7E723692A4653
S1134E7039463046C0470130AAD023689B0713D473
S1134E80E068039B9842B8BF1846A3E701234A464B
S1134E9039463046C04701309AD00135E368039A59
S1134EA09B1AAB42F2DCEBE7002504F11909F5E7A4
S1134EB0002BACD1037804F1420584F842306CE74E
S1134EC0BD590000CE59000038B50023054C0546F5
S1134ED00846236000F072F8431C02D1236803B132
S1134EE02B6038BD9001002010B5C9B20244904235
S1134EF0034601D1002303E01C7801308C42F6D133
S1134F00184610BD10B5431E0A44914200D110BD8D
S1134F1011F8014B03F8014FF7E7884210B501EB94
S1134F20020307D8421E99420AD011F8014B02F835
S1134F30014FF8E78342F5D98118D21AD34200D140
S1134F4010BD13F8014D01F8014DF7E770477047A4
S1134F50F8B5074614460E4621B9BDE8F840114697
S1134F60FFF780BC22B9FFF731FC25462846F8BD7F
S1134F7000F014F8A0420FD221463846FFF772FC25
S1134F8005460028F2D031462246FFF7BBFF3146E2
S1134F903846FFF71BFCE9E73546E7E751F8043CE0
S1134FA0181F002BBCBF0B58C01870475822024B67
S1134FB04FF0FF301A60704790010020044A054901
S1134FC01368002B08BF0B4618441060184670473E
S1134FD08801002098010020FEE700BFF8B500BF5B
S1134FE0F8BC08BC9E467047F8B500BFF8BC08BCC6
S1134FF09E4670470000000000000000010101010E
S113500000000000FF000000FF000000FF0000009F
S1135010FF000000FF000000FF000000000000008F
S1135020090000000A0000000B0000000C00000052
S11350300000000007000000070700003D0000001A
S1135040000000000000000000000001000000005B
S1135050000000000000000000000000000000004C
S11350600000000000000400020200000000000034
S1135070000000000000000000010000000001002A
S11350800102030000000000000000000000000016
S1135090000000000000000000000000000000000C
S11350A000000000000000000000000000000000FC
S11350B000000000000000000000000000000000EC
S11350C000000000000000000000000000000000DC
S11350D000000000000000000000000000000000CC
S11350E000000000000000000000000000000000BC
S11350F000000000000000000000000000000000AC
S1135100000000000000000000000000000000009B
S1135110000000000000000000000000000000008B
S1135120000000000000000000000000000000007B
S1135130000000000000000000000000000000006B
S1135140000000000000000000000000000000005B
S1135150000000000000000000000000000000004B
S1135160000000000000000000000000000000003B
S1135170000000000000000000000000000000002B
S11351800000000001010100000000000000000018
S113519001000000010000003700000000200E00A4
S11351A000000000010101000000000000000000F8
S11351B001000000010000003700000000200E0084
S11351C000000000010101000000000000000000D8
S11351D001000000010000003700000000200E0064
S11351E000000000010101000000000000000000B8
S11351F001000000010000003700000000200E0044
S1135200000000000000000000000000000000009A
S1135210000000000000000000000000000000008A
S1135220000000000000000000000000000000007A
S1135230000000000000000000000000000000006A
S1135240000000000000000000000000000000005A
S1135250000000000000000000000000000000004A
S1135260000000000000000000000000000000003A
S1135270000000000000000000000000000000002A
S1135280000000000000000000000000000000001A
S1135290000000000000000000000000000000000A
S11352A000000000000000000000000000000000FA
S11352B000000000000000000000000000000000EA
S11352C000000000000000000000000000000000DA
S11352D000000000000000000000000000000000CA
S11352E000000000000000000000000000000000BA
S11352F000000000000000000000000000000000AA
S11353000000000000000000000000000000000099
S11353100000000000000000000000000000000089
S11353200000000000000000000000000000000079
S11353300000000000000000000000000000000069
S11353400000000000000000000000000000000059
S11353500000000000000000000000000000000049
S11353600000000000000000000000000000000039
S11353700000000000000000000000000000000029
S11353800000000001010000000000000000000017
S1135390010000000F0000003700000000200000A2
S11353A000000000010100000000000000000000F7
S11353B0010000000F000000370000000020000082
S11353C000000000010100000000000000000000D7
S11353D0010000000F000000370000000020000062
S11353E000000000010100000000000000000000B7
S11353F0010000000F000000370000000020000042
S11354000000000000000000000000000000000098
S11354100000000000000000000000000000000088
S11354200000000000000000000000000000000078
S11354300000000000000000000000000000000068
S11354400000000000000000000000000000000058
S11354500000000000000000000000000000000048
S11354600000000000000000000000000000000038
S11354700000000000000000000000000000000028
S113548000000000010105070703040203020406EB
S113549005060D0E0E0E0D0D0D0D0E0E0E0E0D0D40
S11354A001010507070304020302040605060F10A1
S11354B010100F0F0F0F101010100F0F0101050720
S11354C00703040203020406050611121212111145
S11354D0111112121212111101010507070304021E
S11354E0030204060506131C1C1C131313131C1CB3
S11354F01C1C131300010507060203010302040622
S113550004051D1E1E1E1D1D1D1D1E1E1E1E1D1DF1
S113551000010507060203010302040604051F2017
S113552020201F1F1F1F202020201F1F01010507EF
S11355300703040203020406050621222222212174
S1135540212122222222212107050201030604230C
S113555023232323232307050201030604242424ED
S113556024242424070502010306042525252525D2
S113557025250705020103060426262626262626B7
S11355800001070206272727272700000000000044
S11355900000131211100F0E0D0C00000000212545
S11355A0242601010304040203020D0E0D0D0E0D49
S11355B00E0E01010304040203020F100F0F100F5B
S11355C0101001010304040203021112111112113B
S11355D012120101030404020302131C13131C130B
S11355E01C1C00010203040103021D1E1D1D1E1DBF
S11355F01E1E00010203040103021F201F1F201F9F
S1135600202001010304040203022122212122217A
S1135610222205070704040605060E0E0D0D0E0EC4
S11356200D0D050707040406050610100F0F1010D2
S11356300F0F0507070404060506121211111212B2
S1135640111105070704040605061C1C13131C1C72
S1135650131305070603040604051E1E1D1D1E1E46
S11356601D1D050706030406040520201F1F202016
S11356701F1F0507070404060506222221212222F2
S11356802121000000000011800200000000020639
S11356900000200039000F000000401500204004E5
S11356A0001000223F0006005B044F0466046D04F2
S11356B07D0407007F046F0400000000000A00005E
S11356C080200000FFFF7704790A3900B0207900B8
S11356D071007D04760406000E00700A3800B602DC
S11356E0B6083F0073043F08730C6D0401113E00BB
S11356F030223628802A6E040922390080080F00DF
S113570001000800000158107C0458005E04582071
S113571071040C0C740404000E00700C3800541452
S113572054045C04730467045004080C78001C00DF
S113573010201428802A0C08482000003F0006008E
S11357405B004F0066006D007D0007007F006F0066
S113575077007C0039005E00790071004000000091
S113576001000000030040000C00000000000000E5
S113577000000000010105070703040203020406F8
S113578005060D0E0E0E0D0D0D0D0E0E0E0E0D0D4D
S113579001010507070304020302040605060F10AE
S11357A010100F0F0F0F101010100F0F010105072D
S11357B00703040203020406050611121212111152
S11357C0111112121212111101010507070304022B
S11357D0030204060506131C1C1C131313131C1CC0
S11357E01C1C13130001050706020301030204062F
S11357F004051D1E1E1E1D1D1D1D1E1E1E1E1D1DFF
S113580000010507060203010302040604051F2024
S113581020201F1F1F1F202020201F1F01010507FC
S11358200703040203020406050621222222212181
S11358302121222222222121070502010306042319
S113584023232323232307050201030604242424FA
S113585024242424070502010306042525252525DF
S113586025250705020103060426262626262626C4
S11358700001070206272727272700000000000051
S11358800000131211100F0E0D0C00000000212552
S1135890242601010304040203020D0E0D0D0E0D56
S11358A00E0E01010304040203020F100F0F100F68
S11358B01010010103040402030211121111121148
S11358C012120101030404020302131C13131C1318
S11358D01C1C00010203040103021D1E1D1D1E1DCC
S11358E01E1E00010203040103021F201F1F201FAC
S11358F02020010103040402030221222121222188
S1135900222205070704040605060E0E0D0D0E0ED1
S11359100D0D050707040406050610100F0F1010DF
S11359200F0F0507070404060506121211111212BF
S1135930111105070704040605061C1C13131C1C7F
S1135940131305070603040604051E1E1D1D1E1E53
S11359501D1D050706030406040520201F1F202023
S11359601F1F0507070404060506222221212222FF
S1135970212100002020202020202064494646497F
S113598043554C545900000025730000202020206A
S113599020000000454E6420000000002564000043
S11359A02000000057494E0060000020232D302BBA
S11359B02000686C4C00656667454647003031320C
S11359C03334353637383941424344454600303163
S11359D032333435363738396162636465660000C2
S10759E000000000BF
S10B59E438A7FF7F0100000059
S11359EC006CDC0200800000809FD50001000000E8
S11359FC0100000001000000010000000100000093
S1135A0C0100000001000000010000000100000082
S1135A1C0100000001000000010000000100000072
S1135A2C0100000001000000010000000101000061
S1135A3C0100000001010101745900006000002004
S1135A4C0000000000000000000000000000000046
S1135A5C0000000000000000000000000000000036
S1135A6C0000000000000000000000000000000026
S1135A7C0000000000000000000000000000000016
S1135A8C0000000000000000000000000000000006
S1135A9C00000000000000000000000000000000F6
S10B5AAC01010000DD0000000F
S90301916A
