S016000053544B333730305F746F7563685F322E7333370F
S113000000000220A9020000D5020000D502000071
S1130010D5020000D5020000D5020000D502000080
S1130020D5020000D5020000D5020000D502000070
S1130030D5020000D4020000D502000029490000C6
S1130040D502000095480000D5020000D50200004A
S1130050D5020000D5020000D5020000D502000040
S1130060D5020000D5020000D50200007948000046
S1130070D5020000D5020000D5020000D502000020
S1130080D502000069080000D5020000D502000076
S1130090D5020000D5020000D5020000D502000000
S11300A0D5020000D5020000D5020000D5020000F0
S11300B0D5020000D502000079450000D5020000F9
S11300C0D5020000D5020000D5020000D5020000D0
S11300D0D5020000D5020000D502000010B5054C81
S11300E0237833B9044B13B10448AFF300800123E0
S11300F0237010BDC000002000000000886B0000C9
S113010008B5034B1BB103490348AFF3008008BD96
S113011000000000C4000020886B0000154B002B79
S113012008BF134B9D46A3F5803A00218B460F462A
S11301301348144A121A05F045FC0F4B002B00D04B
S113014098470E4B002B00D0984700200021040054
S11301500D000D48002802D00C48AFF3008005F0D4
S11301600DFC2000290004F0B1FF05F0F3FB00BFF3
S11301700000080000000220000000000000000051
S1130180C0000020A80100200000000000000000C2
S113019080B582B000AF3A4B5B6C394A43F40053EC
S11301A05364384BD3F82031364A43F00403C2F881
S11301B02031344BD3F82031324A23F44073C2F84F
S11301C02031304BD3F8B8302E4A23F47063C2F890
S11301D0B8302C4BD3F8B8302A4A43F48063C2F8C1
S11301E0B830274B10221A6200BF254BDB6A03F09C
S11301F02003002BF9D0244B1B68234A43F001034E
S11302001360214BDB68204A43F08073D3601F4B9B
S11302101F4A1A601F4801F067FE034603F5D52301
S113022003F2FC437B607B68DB081B4AA2FB0323CD
S11302309B0A3B60194A3B68013B1361174B02223E
S1130240C3F8F020154B4FF48072C3F804234FF029
S11302506043134AC3F8B02F4FF06043114AC3F808
S1130260802E4FF06043D3F8003E4FF0604243F0DD
S11302700103C2F8003E012318460837BD4680BD7D
S113028000800C4000600040F0ED00E0001000E051
S1130290FF13014006000E0017916502000004E000
S11302A055CEACC509000100064880470649074AF7
S11302B0074B9A42BEBF51F8040B42F8040BF8E70F
S11302C0FFF72CFF4D040000946B00000000002099
S11302D0C0000020FEE700BF80B400AF034BDB6C1E
S11302E01B0EDBB21846BD4680BC7047B081E00FE0
S11302F080B582B000AF00F01FF87860074B5B68F0
S113030003F00F037A6822FA03F37B60044A7B68E4
S113031013607B6818460837BD4680BD00800C40DA
S11303200800002080B400AF024B1846BD4680BCD4
S1130330704700BF006CDC0280B582B000AF334B65
S1130340DB6A03F47053B3F5805F0AD0B3F5005F42
S113035003D0B3F5006F08D00BE02D4B1B687B6016
S113036047E04FF400437B6043E02A4B1B687B600B
S11303703FE0264BDB6803F4E063B3F5007F1BD05A
S1130380B3F5007F05D8002B24D0B3F5807F16D0B9
S11303902BE0B3F5806F09D0B3F5A06F03D0B3F5AC
S11303A0407F06D021E01C4B7B6021E01B4B7B602F
S11303B01EE01B4B7B601BE01A4B7B6018E0FFF7D1
S11303C08BFF0346122B02D9174B7B6010E0174BAF
S11303D07B600DE0FFF780FF0346122B02D9144B1C
S11303E07B6005E0134B7B6002E000237B6000BF71
S11303F000BF064B1B689B0B03F0070301337A68AD
S1130400B2FBF3F318460837BD4680BD00800C40AC
S11304100400002000000020003FAB01406F4001B9
S1130420809FD500C0D8A70040B56400C0CF6A0043
S1130430804F120040420F0080B400AF024B1B6893
S11304401846BD4680BC70470000002080B400AF51
S1130450034B044A9A6000BFBD4680BC704700BF8E
S113046000ED00E00000000080B400AF4FF4004352
S11304701846BD4680BC704780B400AF4FF47A7311
S11304801846BD4680BC704780B400AF024B1B6861
S11304901846BD4680BC70470400002080B483B079
S11304A000AF0346FB7197F90730002B0BDBFB7998
S11304B003F01F02064997F907305B09012000FA8F
S11304C002F241F8232000BF0C37BD4680BC7047C0
S11304D000E100E080B500AFFFF70AFF00BF80BD78
S11304E080B400AF024B1B6A1846BD4680BC7047FF
S11304F000C0084080B400AF024B9B6A1846BD465A
S113050080BC704700C0084080B483B000AF7860FE
S1130510054A7B6803F00F03A03352F823301846D2
S11305200C37BD4680BC704700C0084080B483B01F
S113053000AF7860034A7B68536400BF0C37BD4644
S113054080BC704700C0084080B483B000AF7860BE
S1130550054BDA6C04497B681343CB6400BF0C374A
S1130560BD4680BC704700BF00C0084080B483B063
S113057000AF7860054BDA6C7B68DB4303491340BA
S1130580CB6400BF0C37BD4680BC704700C0084038
S113059080B483B000AF064BDB6C7B60044B1A6CF9
S11305A07B68134018460C37BD4680BC704700BFBB
S11305B000C0084080B500AFFFF78CFF0521112073
S11305C001F040FE0321124801F03CFE01211148D4
S11305D001F038FE0121104801F022FC01210F48EE
S11305E001F01EFC01210E4801F01AFC01210D4806
S11305F001F016FC01210C4801F012FC01210B480A
S113060001F00EFC0121094801F0D8FA00BF80BDB9
S113061002001E00030020004081040000D20400F8
S11306200092040000A20400D0433E0080062E0085
S113063080B500AF0021022002F090F900230022CF
S11306400821022002F02CFA0023002209210220B2
S113065002F026FA002300220A21022002F020FAE6
S1130660002300220B21022002F01AFA00BF80BDF1
S113067080B500AF002300220021094800F0F4FEF9
S1130680002300220021074800F0EEFE064904483A
S113069000F0A6FE0449034800F0A2FE00BF80BD9E
S11306A00010004000140040D063000080B584B006
S11306B000AF0346FB715B4B1B78002B03D0012179
S11306C0594802F0B3FDFB79002B37D003F074F8DE
S11306D000BFFFF705FF034603F01003002BF8D11A
S11306E003F084F80421002002F054FE00210020CD
S11306F002F0E8FE4D4802F015FF4D4B1B881A46E8
S11307003721082002F0F0FF494B5B881A46372155
S1130710092002F0E9FF464B9B881A4637210A203C
S113072002F0E2FF424BDB881A4637210B2002F02D
S1130730DBFF4FF48030FFF719FF1EE003F03CF8B5
S113074000BFFFF7CDFE034603F01003002BF8D1E2
S11307504FF48030FFF7EAFE03F048F84021002010
S113076002F018FE0321002002F0ACFE314802F032
S1130770D9FE4FF48030FFF7E7FE1120FFF78EFE1D
S113078003F000F8274B1B78002B47D0254B0022A1
S11307901A7000BF284B1B6A03F00203002BF9D028
S11307A00023FB730023BB7319E0BB7B234AD35C98
S11307B0002B11D0FB7B032B0BD8BB7B1846FFF718
S11307C0A3FE03469AB2FB7B013A91B2184A22F87F
S11307D01310FB7B0133FB73BB7B0133BB73BB7B0C
S11307E00F2BE2D9124B1B881A463721082002F03E
S11307F07BFF0F4B5B881A463721092002F074FFF8
S11308000B4B9B881A4637210A2002F06DFF084BD8
S1130810DB881A4637210B2002F066FF00BF103731
S1130820BD4680BD4C000020E46300002464000049
S1130830280100202466000000C0084094630000E2
S113084080B483B000AF78603960054A7B68136078
S1130850044A3B68136000BF0C37BD4680BC704738
S11308601C0100202001002080B582B000AFFFF7FA
S11308708FFE034603F48033002B44D04FF48030C2
S1130880FFF754FE2B4B00221A7030E0294B1B78E3
S1130890DBB21A46284B9B5C83F00103DBB2002BCE
S11308A01DD1FFF727FE7860224B1B78DBB2194677
S11308B0224A7B6842F821301E4B1B78DBB21A4671
S11308C01F4B53F822307A689A4209D9194B1B7886
S11308D0DBB219461A4A7B6842F8213000E000BFB7
S11308E0144B1B78DBB20133DAB2124B1A70114B82
S11308F01B78DBB20F2BC9D9124B1B68002B02D01B
S1130900104B1B689847FFF743FE034603F47063DC
S1130910002B0AD04FF47060FFF708FE0A4B1B68E7
S1130920002B02D0084B1B68984700BF0837BD4610
S113093080BD00BF2401002094630000DC0000207F
S11309400C0000201C01002020010020B0B491B054
S113095000AF4FF0FF33BB63EC237B634F4B07F1D6
S113096018041D460FCD0FC495E8030084E8030066
S11309704B4B3C1D1D460FCD0FC42B682360012338
S1130980FB6344E0FB6B9B0007F14002134453F804
S11309903C3C013B434A52F823301A02FB6B9B0058
S11309A007F140010B4443F8282CFB6B9B0007F133
S11309B04002134453F83C3C013B3B4A52F8232089
S11309C0FB6B9B0007F140010B4453F8283CB3FB3D
S11309D0F2F2FB6B9B0007F140010B4443F8282C17
S11309E0FB6B9B0007F14002134453F8283C7A6BDD
S11309F09A4209D9FB6B9B0007F14002134453F858
S1130A00283C7B63FB6BBB63FB6B0133FB63FB6BBE
S1130A10042BB7DDBB6BB3F1FF3F02D14FF0FF33C3
S1130A2036E0BB6B013B1B013B633A6BBB6B013B89
S1130A309B0007F140010B4453F8283CC3F5807335
S1130A40D900BB6B9B0007F14000034453F8283CDA
S1130A50C3F58073B1FBF3F3D31A3B63BB6B013370
S1130A609B0007F14002134453F8283CC3F58073FC
S1130A70DA00BB6B9B0007F140010B4453F8283CA0
S1130A80C3F58073B2FBF3F23B6B13443B633B6BE4
S1130A9018464437BD46B0BC704700BFA46300008D
S1130AA0BC630000DC0000200C00002080B500AF17
S1130AB0012001F071FE00BF80BD80B584B000AF9D
S1130AC00346FB7101F086FDF860FFF773FDFFF745
S1130AD0AFFDFFF7CDFDFB791846FFF7E7FDF8689A
S1130AE001F087FD00BF1037BD4680BD80B483B0E0
S1130AF000AF0346FB71FB79002B06D0084B1B6843
S1130B00074A43F00103136005E0054B1B68044AE0
S1130B1023F00103136000BF0C37BD4680BC70474F
S1130B2000A0084080B483B000AF0346FB71FB799A
S1130B30002B03D0054B01221A6602E0034B00226E
S1130B401A6600BF0C37BD4680BC704700A0084041
S1130B5080B483B000AF786000BF054B5A6E7B68E9
S1130B601340002BF9D100BF0C37BD4680BC704741
S1130B7000A0084080B483B000AF7860054B9A6A47
S1130B807B68DB43034913408B6200BF0C37BD46CF
S1130B9080BC704700A0084080B500AF00222849FF
S1130BA0002002F09DF900222549012002F098F965
S1130BB000222349022002F093F900222049032055
S1130BC002F08EF900221E49042002F089F9002265
S1130BD01B49052002F084F900221949062002F07D
S1130BE07FF900221649072002F07AF90022FF213A
S1130BF0002002F033FA0022FF21012002F02EFA35
S1130C000022FF21022002F029FA0022FF21032002
S1130C1002F024FA0022FF21042002F01FFA00222D
S1130C20FF21052002F01AFA0022FF21062002F01B
S1130C3015FA0022FF21072002F010FA00BF80BD40
S1130C4000F00FF080B500AF4FF0FF322F490020C5
S1130C5002F046F94FF0FF322C49012002F040F92E
S1130C604FF0FF322949022002F03AF94FF0FF32E7
S1130C702649032002F034F94FF0FF3223490420BF
S1130C8002F02EF94FF0FF322049052002F028F936
S1130C904FF0FF321D49062002F022F94FF0FF32D7
S1130CA01A49072002F01CF94FF0FF32FF210020FF
S1130CB002F0D4F94FF0FF32FF21012002F0CEF907
S1130CC04FF0FF32FF21022002F0C8F94FF0FF324B
S1130CD0FF21032002F0C2F94FF0FF32FF2104206C
S1130CE002F0BCF94FF0FF32FF21052002F0B6F903
S1130CF04FF0FF32FF21062002F0B0F94FF0FF322F
S1130D00FF21072002F0AAF900BF80BD00F00FF018
S1130D1080B500AF00222649072002F0E1F8002246
S1130D202449062002F0DCF800222249052002F0C2
S1130D30D7F800221F49042002F0D2F800221D49EE
S1130D40032002F0CDF800221A49022002F0C8F86C
S1130D5000221849012002F0C3F800224FF020417C
S1130D60002002F0BDF800220721072002F076F9E6
S1130D7000220721062002F071F900220721052034
S1130D8002F06CF900220721042002F067F9002226
S1130D900721032002F062F900220721022002F059
S1130DA05DF900220721012002F058F900BF80BD3F
S1130DB000E00F5000E00FF080B500AF0020FFF717
S1130DC095FE0120FFF7C4FE0021044801F028F835
S1130DD0034B0022DA6700BF80BD00BF00362C0041
S1130DE000800C4080B582B000AF0346FB71012146
S1130DF0244801F015F80321234801F023FA402187
S1130E00224800F0DBFE012001F068FB01212048AC
S1130E1001F006F84FF0FF30FFF7ACFE1D4801F07B
S1130E20FDFE0121082001F057FF0121102001F0EF
S1130E3053FF0121802001F04FFF01214FF4807006
S1130E4001F04AFF01214FF4007001F045FFFB79E6
S1130E50002B0DD04FF4402002F0BEF94FF4803047
S1130E6001F018FF0C4BDB6F0B4A43F00803D36708
S1130E70FFF792FE4FF0FF30FFF76AFE00BF08371E
S1130E80BD4680BDD0433E0002001E0080002A0003
S1130E9000362C00006B000000800C4080B58AB046
S1130EA000AF78607B6842F20E72934202DD42F238
S1130EB00F737B607B6813F57A7F01DC3D4B7B60AD
S1130EC07B68002B06DA786804F040FD7860012323
S1130ED0BB6101E00023BB614FF0FF30FFF738FE38
S1130EE00120FFF71FFE00F06DF80123FB610023D2
S1130EF03B6254E07A68FB6992FBF3F22E4B83FB6E
S1130F0002139910D317C91A0B469B000B445B00BC
S1130F10D11A0B46FB82BB69012B04D13B6A032B1C
S1130F2001D11023FB82FB8A244A32F81330BB829E
S1130F3000237B6227E022493A6A1346DB009B1AAE
S1130F405B00CA187B6A1344CB331B783B611C4992
S1130F503A6A1346DB009B1A5B00CA187B6A134487
S1130F60C4331B78FB60BA8A7B6A42FA03F303F04A
S1130F700103002B04D001223969F86801F0CCFE8A
S1130F807B6A01337B627B6A062BD4DDFA691346E4
S1130F909B0013445B00FB613B6A01333B623B6A89
S1130FA0032BA7DD0020FFF7BDFD00BF2837BD469A
S1130FB080BD00BF19FCFFFF67666666DC6A00003F
S1130FC02468000080B500AF00227821012002F0DF
S1130FD045F800227821022002F040F8002278210E
S1130FE0032002F03BF800227821042002F036F8B6
S1130FF000227821052002F031F800227821062011
S113100002F02CF800227821072002F027F800BF14
S113101080BD000080B584B000AF03463960FB7129
S11310200023FB600023BB60FB790E2B6BD801A26D
S113103052F823F0711000007B10000085100000AE
S11310408F10000099100000A3100000AD100000E4
S1131050B7100000C1100000CB100000D510000034
S1131060DF100000E9100000F3100000FD10000084
S11310700123FB600C23BB6046E00023FB602023BC
S1131080BB6041E00323FB602723BB603CE00223F9
S1131090FB600C23BB6037E00023FB601C23BB60B8
S11310A032E00323FB600C23BB602DE00423FB60D0
S11310B00C23BB6028E00023FB601E23BB6023E0FD
S11310C00523FB602723BB601EE00023FB60222373
S11310D0BB6019E00023FB602323BB6014E00723FB
S11310E0FB600C23BB600FE00523FB600C23BB609B
S11310F00AE00623FB600C23BB6005E00723FB60CA
S11311001D23BB6000E000BF3B68002B05D001221B
S1131110B968F86801F000FE04E00022B968F868D4
S113112001F0FAFD00BF1037BD4680BD80B58AB01E
S113113000AF7860786804F0DCFC0346BB610023F0
S11311403B624FF0FF30FFF703FD0120FFF7EAFC9D
S1131150FFF7DEFD00233B6245E03A6ABB699A4231
S113116003DA7B681B787B6201E020237B627B6A65
S1131170203B7B62214A7B6A32F81330FB820023D6
S1131180FB6127E01E493A6A1346DB009B1A9B0069
S1131190CA18FB6913440E331B783B6118493A6A39
S11311A01346DB009B1A9B00CA18FB6913441B7887
S11311B0FB60FA8AFB6942FA03F303F00103002B94
S11311C005D0FB6839690122184601F0A5FDFB69C9
S11311D00133FB61FB690D2BD4DD7B6801337B603C
S11311E03B6A01333B623B6A062BB6DD0020FFF706
S11311F099FC00BF2837BD4680BD00BF246A0000AB
S11312002468000080B584B000AF78603960114A6A
S11312107B68134403F583731B78FB600D4A7B687A
S1131220134403F587731B78BB603B68002B06D01F
S1131230FB68B9680122184601F06EFD05E0FB6801
S1131240B9680022184601F067FD00BF1037BD469B
S113125080BD00BF2468000080B400AF4FF080431D
S11312601B684FF0804223F00103136000BFBD46AA
S113127080BC704780B582B000AF78600849786858
S113128003F068FF03460749184604F021F90346B2
S1131290184604F0B9F9034618460837BD4680BD20
S11312A04260D53F96430B3D80B400AF4FF080437E
S11312B09B6803F00203002B01D0012300E000230C
S11312C01846BD4680BC704780B400AF4FF08043E1
S11312D09B6803F00103002B01D0012300E00023ED
S11312E01846BD4680BC704780B500AF0121044854
S11312F000F096FD0121034800F092FD00BF80BD7F
S1131300D0433E0000E2040080B500AFFFF7A4FF25
S11313100021024800F084FD00BF80BD00E204000B
S1131320B0B58AB000AF7860174B07F10C041D46C6
S11313300FCD0FC495E8070084E807007868FFF72D
S113134099FF03463B620523BB7500233B770123CA
S113135087F8243007F10C03184602F076FB00BF2F
S1131360FFF7B2FF034683F00103DBB2002BF7D192
S1131370FFF79AFF0346002B01D0002300E001236E
S113138018462837BD46B0BD146B000080B487B042
S113139000AFF860B9607A60FB6803F10473DA00A7
S11313A0BB6813449B007B617B697A681A6000BF49
S11313B01C37BD4680BC704780B485B000AFF86070
S11313C0B9607A60FB681A68BB68DB431A407B68C3
S11313D01A43FB681A6000BF1437BD4680BC7047CF
S11313E080B582B000AF786039607B681C4A934254
S11313F002D07B681B4A934200BF3B681B78DA0724
S11314003B685B789B0713431A463B685B681B0683
S113141013433A68127A120213433A68527A120159
S11314201A437B681A603B689B7A1B071A463B6821
S1131430DB7A1B041A433B68DB681B02134343F04B
S1131440807343F0B0037A68536078683B681B7C10
S11314501A460021FFF79AFF00BF0837BD4680BD3A
S1131460001000400014004080B584B000AFF86064
S1131470B96011461A460B46FB711346BB71FB68F3
S11314800B4A934202D0FB680A4A934200BFF868B1
S1131490BB79DB001A460821FFF78EFFBB681A02EE
S11314A0FB791A43FB68DA6100BF1037BD4680BD83
S11314B0001000400014004080B487B000AFF86012
S11314C0B9607A60FB6803F10473DA00BB68134403
S11314D09B007B617B697A681A6000BF1C37BD463C
S11314E080BC704780B485B000AF786039607B6899
S11314F003F10473DA003B6813449B00FB60FB6850
S11315001B6818461437BD4680BC704780B483B04E
S113151000AF786001227B6802FA03F318460C37A7
S1131520BD4680BC704780B485B000AF78607B68EE
S1131530002B03D07B68B3F5004F00BF7B68B3FA80
S113154083F3DBB2C3F11F03FB60FB681846143757
S1131550BD4680BC7047000080B400AF034BDB6C19
S11315601B0EDBB21846BD4680BC7047B081E00F4D
S113157080B400AF034BDB6C1B0CDBB21846BD46DA
S113158080BC7047B081E00F80B582B000AFFFF738
S1131590EFFF03464A2B04D0792B02D0482B23D0EB
S11315A024E0154B1B699BB21B029BB203F47C53D2
S11315B0FB80114B9B691B091B0103F0F0039AB2DA
S11315C0FB881343FB800C4BDB691B0903F00F03FF
S11315D09AB2FB881343FB80FB88B3F5017F01D3E8
S11315E0064B04E0064B02E0054B00E000231846DE
S11315F00837BD4680BD00BFD0FF0FE000366E0146
S11316000048E80180B584B000AF78600123FB6036
S1131610FFF7BAFF02467B68934204D80023FB60BD
S11316200023BB600BE0FFF7AFFF03465B007A6863
S11316309A4202D80123BB6001E00223BB60FA682E
S11316401E210848FFF738FF064B5B6823F48072BD
S1131650BB681B02034913434B6000BF1037BD46F0
S113166080BD00BF00800C4080B582B000AF1E2159
S11316700448FFF737FF78607B6818460837BD4693
S113168080BD00BF00800C4080B582B000AF214B0C
S11316905B6903F4E063B3F5007F1CD0B3F5007F0E
S11316A005D8002B25D0B3F5807F1FD02AE0B3F5F1
S11316B0C06F24D0B3F5E06F1ED0B3F5407F21D1C5
S11316C0FFF74AFF0346122B02D9134B7B601CE041
S11316D0124B7B6019E0FFF73FFF0346122B02D940
S11316E00F4B7B6011E00F4B7B600EE00E4B7B6079
S11316F00BE00E4B7B6008E00D4B7B6005E00D4B6F
S11317007B6002E000237B6000BF7B6818460837DB
S1131710BD4680BD00800C40804F120040420F0047
S113172040B56400C0CF6A00C0D8A700809FD50030
S1131730406F4001003FAB0180B582B000AF0D485F
S113174000F0D2FC0346FB70FB78072B05D0092B75
S113175007D1FEF7F1FD786006E0FFF795FF7860AA
S113176002E000237B6000BF7B6818460837BD4653
S113177080BD00BF06000E0080B485B000AF786065
S11317803960204B5B6803F00703FB60FB68012BA7
S113179001D9042B02D10023FB7202E00123FB7266
S11317A000BF7B68184A934207D9FB7A002B01D00B
S11317B0052300E00423FB6016E07B68124A934291
S11317C00BD87B68114A934207D9FB7A002B01D0CE
S11317D0032300E00123FB6006E0FB7A002B01D029
S11317E0022300E00023FB60064B5B6823F0070242
S11317F00449FB6813434B6000BF1437BD4680BCEB
S1131800704700BF00000C400048E8010024F400C9
S113181080B582B000AF0E4BDB6B002B14BF0123ED
S11318200023FB710A4B41F67132DA63FEF77AFD4D
S1131830034600211846FFF79FFFFB79002B02D0D7
S1131840034B0022DA6300BF0837BD4680BD00BFEA
S113185000000C4080B584B000AF786039600C4B58
S1131860DB6B002B14BF01230023FB73084B41F6F1
S11318707132DA6339687868FFF77EFFFB7B002BEF
S113188002D0034B0022DA6300BF1037BD4680BD8F
S113189000000C4090B585B000AF78600023BB60B9
S11318A07B68344A934203D0334A934200D000E029
S11318B000BF786800F018FC0346FB607B682D4A83
S11318C0934203D02C4A934206D00CE02B4B9B6AE4
S11318D003F00303FB6006E0284B9B6A9B0803F0BC
S11318E00303FB6000BFFB68032B39D801A252F845
S11318F023F000BF2B190000051900000D1900008A
S113190015190000FEF7B0FDB8602DE0FEF7BCFD30
S1131910B86029E0FEF7ECFC0446FFF7A5FE034699
S1131920013324FA03F3BB601EE00023BB607B6831
S1131930104A934203D07B680F4A934213D10F4B52
S11319409A6A7B680B498B4201D1102300E014236F
S113195022FA03F3002B06D0FEF78EFDB86002E0F6
S11319600023BB6000E000BFBB6818461437BD46C7
S113197090BD00BF02001E000300200000800C4048
S113198080B483B000AF7860094B5B6D03F0010352
S1131990002B07D100BF064B1A6D7B681340002B48
S11319A0F9D100E000BF0C37BD4680BC704700BFD2
S11319B000800C4080B582B000AF104800F094FB6A
S11319C00346FB70FB78032B07D0092B09D0022BAD
S11319D00BD1FEF759FD78600AE0FEF745FD78600B
S11319E006E0FEF7A9FC786002E000237B6000BFFC
S11319F07B6818460837BD4680BD00BF0723260014
S1131A0080B400AF00BFBD4680BC704780B400AF57
S1131A1000BFBD4680BC704790B585B000AF78600C
S1131A207B681B0903F00F03BB60BB68013B0C2BF5
S1131A3000F2AE8001A252F823F000BF711A000038
S1131A40911B0000911B0000811A0000911B0000F3
S1131A50911B0000951A0000C31A00004F1B0000E0
S1131A60911B0000911B0000911B0000A91A0000AB
S1131A704B4B1B689B0B03F007030133FB608AE0AD
S1131A80474B9B6803F00F03FB60F868FFF73EFDCC
S1131A90F86080E0424B5B6803F00F03FB60F8687A
S1131AA0FFF734FDF86076E03D4B5B681B0A03F0FA
S1131AB00103FB60FB6801331846FFF727FDF8605C
S1131AC069E07B68374A934218D0364A934203D878
S1131AD0354A934207D036E0344A934219D0344A07
S1131AE0934226D02FE02E4B9B6E1B0903F00F036D
S1131AF0FB60F868FFF70AFDF86027E0284B9B6E4F
S1131B001B0A03F00F03FB60F868FFF7FFFCF860A3
S1131B101CE0234B9B6E1B0B03F003041020FFF708
S1131B2002FD03462344FB60F868FFF7EFFCF8600E
S1131B300CE01B4B9B6E03F00303FB60F868FFF79C
S1131B40E5FCF86002E00123FB6000BF23E07B6852
S1131B50184A934203D0184A93420AD014E0104B17
S1131B601B6F03F00303FB60F868FFF7CFFCF8601A
S1131B700DE00B4B1B6F1B0903F00303FB60F868BC
S1131B80FFF7C4FCF86002E00123FB6000BF02E041
S1131B900123FB6000BFFB6818461437BD4690BDA7
S1131BA000800C40802616008016120080002A0057
S1131BB080062E0090071A0090171C0090B585B07F
S1131BC000AF786039607B681B0903F00F03FB608A
S1131BD0FB68013B0C2B00F20F8101A252F823F0A9
S1131BE0151C0000F91D0000F91D0000491C00002F
S1131BF0F91D0000F91D0000911C0000E31C000009
S1131C00A51D0000F91D0000F91D0000F91D0000CC
S1131C10711C00003B68002B02D03B68082B00BFFE
S1131C20FFF7F6FD774B1B6823F4E0323B68013B7A
S1131C309B03744913430B60FEF75AFBB860002101
S1131C40B868FFF707FED8E03B68002B03D03B6879
S1131C50B3F5007F00BF3868FFF765FC3860694B57
S1131C609B6823F00F0267493B6813438B60C4E011
S1131C703868FFF758FC0346013B3B60614B5B68E7
S1131C8023F480723B681B025E4913434B60B4E04B
S1131C903B68002B03D03B68B3F5007F00BFFFF720
S1131CA0B7FDFEF725FB02463B68B2FBF3F318468B
S1131CB0FFF7A8FC3868FFF736FC3860514B5B68C7
S1131CC023F00F024F493B6813434B60FEF710FBB0
S1131CD0B8600021B868FFF7BDFDB868FFF792FC53
S1131CE08BE07B68484A93421ED0474A934203D80C
S1131CF0464A934207D054E0454A934225D0454A88
S1131D0093423ED04DE00420FFF73AFE3868FFF7D7
S1131D100AFC38603B4B9B6E23F0F0023B681B01CE
S1131D20384913438B663CE00420FFF729FE3868EA
S1131D30FFF7F9FB3860334B9B6E23F470623B680A
S1131D401B02304913438B662BE03B680F2B02D9EF
S1131D503B68802B00BF0420FFF712FE3868FFF7B2
S1131D60E2FB3860274B9B6E23F440541020FFF7AE
S1131D70DAFB02463B689B1A1B03224A2343936601
S1131D800FE00420FFF7FCFD3868FFF7CCFB386058
S1131D901C4B9B6E23F003021A493B6813438B666A
S1131DA000BF2AE07B681C4A934203D01B4A93423B
S1131DB010D020E04020FFF7E3FD3868FFF7B3FBC5
S1131DC03860104B1B6F23F003020E493B6813432A
S1131DD00B6710E04020FFF7D3FD3868FFF7A3FB43
S1131DE03860084B1B6F23F030023B681B01054928
S1131DF013430B6700BF00E000BF00BF1437BD46AC
S1131E0090BD00BF00800C40802616008016120092
S1131E1080002A0080062E0090071A0090171C00EC
S1131E2080B586B000AF78600B46FB7000233B6141
S1131E307B681B0A03F00F03013B092B44D801A262
S1131E4052F823F07F1E0000851E00006D1E000066
S1131E50C91E0000C91E00008B1E0000951E000054
S1131E60C91E0000C91E00009F1E0000184B7B61A4
S1131E70FEF73EFA03461846FFF7C4FB12E0154B83
S1131E807B610FE0144B7B610CE0144B7B610123FD
S1131E903B6107E0124B7B6110233B6102E0114B75
S1131EA07B6100BF7B681B0B03F01F03FB603B6976
S1131EB0002B02D03869FFF763FDFB781A46F968F6
S1131EC07869FFF7F9FA00E000BF1837BD4680BD16
S1131ED040800C4008800C4044800C4058800C40EA
S1131EE060800C4078800C4090B585B000AF78607D
S1131EF07B6803F47813B3F5D01F00F0B480B3F516
S1131F00D01F1AD8B3F5602F00F0C880B3F5602F46
S1131F1008D8B3F5003F45D0B3F5802F36D0002B59
S1131F2030D0D2E0B3F5901F45D0B3F5B01F50D0F8
S1131F30B3F5801F00F0B680C7E0B3F5181F00F0BA
S1131F40B580B3F5181F0BD8B3F5F01F2ED0B3F539
S1131F50001F00F08380B3F5E01F00F09180B4E02F
S1131F60B3F5301F56D0B3F5301F03D8B3F5281F8F
S1131F703DD0AAE0B3F5381F63D0B3F5781F00F065
S1131F809980A2E0FEF7D8F9F860A1E0FEF7D4F951
S1131F90F860524B9B6803F00F03FA6822FA03F3CC
S1131FA0FB6095E0FEF7A4F9F86091E04C48FFF778
S1131FB071FCF8608CE04A48FFF76CFCF860474B12
S1131FC09B6E1B0903F00F03FA6822FA03F3FB600C
S1131FD07EE04348FFF75EFCF860404B9B6E1B0AB3
S1131FE003F00F03FA6822FA03F3FB6070E03C4845
S1131FF0FFF750FCF860394B9B6E1B0B03F0030496
S11320001020FFF790FA03462344FA6822FA03F3F8
S1132010FB605DE03248FFF73DFCF8602F4B9B6EA0
S11320201B0B03F00303FA6822FA03F3FB602B4B48
S1132030DB6F03F007030133FA68B2FBF3F3FB60D1
S113204046E02748FFF726FCF860244B9B6E03F01C
S11320500303FA6822FA03F3FB6039E02148FFF72F
S113206019FCF86034E01F48FFF714FCF8601B4BC0
S11320701B6F03F00303FA6822FA03F3FB6027E003
S11320801848FFF707FCF860144B1B6F1B0903F09B
S11320900303FA6822FA03F3FB6019E0FFF74CFB31
S11320A0F86015E0FFF7F0FAF86011E0FFF782FC42
S11320B0F8600DE0FEF71CF904467868FFF7ACFC05
S11320C00346B4FBF3F3FB6002E00023FB6000BFB4
S11320D0FB6818461437BD4690BD00BF00800C4015
S11320E002001E000300200080B485B000AF7860B9
S11320F00123FB737B6803F00F03BB60BB68013BE8
S1132100062B00F2938001A252F823F0292100004B
S11321105F2100009B2100002D2200002D220000E1
S1132120D7210000F9210000454BDB6A03F470530A
S1132130B3F5805F09D0B3F5005F03D0B3F5006F4A
S113214006D008E00223FB7308E00323FB7305E0D9
S11321500423FB7302E00523FB7300BF69E0384BE3
S11321609B6A03F00303022B06D0032B07D0012B39
S113217008D10323FB730FE00223FB730CE0062357
S1132180FB7309E02E4B9B6A03F48033002B02D0CF
S11321900A23FB7300E000BF4BE0294B9B6A03F06A
S11321A00C03082B06D00C2B07D0042B08D10323D7
S11321B0FB730FE00223FB730CE00623FB7309E0BF
S11321C01F4B9B6A03F48013002B02D00A23FB737A
S11321D000E000BF2DE01A4B1B6803F08053002B76
S11321E003D0B3F1805F03D023E00723FB7302E045
S11321F00923FB7300BF1CE0114BDB6A03F460335B
S1132200B3F5803F08D0B3F5003F08D0B3F5004FD5
S113221008D10923FB7308E00223FB7305E00323C1
S1132220FB7302E00123FB7300BF02E00023FB7396
S113223000BFFB7B18461437BD4680BC704700BF07
S113224000800C4080B588B000AF78600B46FB700E
S11322500323FB610323FB7600233B617B6803F0CC
S11322600F03FB60FB68013B062B00F2288101A2EF
S113227052F823F091220000672300006723000036
S1132280BF240000BF2400002D24000057240000B8
S1132290FB78023B082B00F2148101A252F823F0D0
S11322A0C5220000CF220000D92200001B23000019
S11322B0C3240000C3240000C3240000C32400007E
S11322C0C32400000423FB610023FB7631E00323D5
S11322D0FB610123FB762CE00223FB610223FB76E6
S11322E0FFF752F9034601331846FFF78BF9FEF75F
S11322F0A3F80246764B9A4206D9764B1B68754A78
S113230043F06003136014E0724B1B6823F0600316
S1132310704A43F0200313600BE00123FB610323A5
S1132320FB76FFF731F9034601331846FFF76AF9E4
S113233000BFFB7E01220121184600F0EDF8FFF7F3
S113234067FAFFF75DFB634AFB695362FDF7D0FF51
S1132350B860B868FFF756F90021B868FFF77AFA51
S1132360FFF754FBB0E0FB78013B092B00F2AB8094
S113237001A252F823F000BFA1230000A72300000C
S1132380B7230000C7240000C7240000C7230000AF
S1132390C7240000C7240000C7240000E323000072
S11323A000237B6122E001220121002000F0B4F827
S11323B002237B611AE001220121012000F0ACF824
S11323C001237B6112E0FDF793FFB860B868FFF763
S11323D019F9012204214048FFF76EF803237B61B9
S11323E004E000237B6101233B6100BFFB68022BF7
S11323F00DD1384B9B6A23F4803323F003037A69AD
S11324001A433B691B04334913438B625CE0314B31
S11324109B6A23F4801323F00C037A6992001A4315
S11324203B691B052B4913438B624DE0FB78072B5B
S113243002D0092B07D047E0264B1B68254A23F01E
S11324408053136006E0234B1B68224A43F08053F9
S1132450136000BF38E0FB78032B14D0092B22D083
S1132460022B00D030E001220121002000F054F8BA
S1132470184B40225A6200BF164BDB6A03F48033C8
S1132480002BF9D01AE001220121012000F044F8C8
S1132490104B60225A6200BF0E4BDB6A03F4003318
S11324A0002BF9D00AE00B4B20225A6200BF094BE3
S11324B0DB6A03F40043002BF9D000BF04E000BF43
S11324C002E000BF00E000BF2037BD4680BD00BF72
S11324D00048E80100800C4040800C4080B483B088
S11324E000AF78600B4B9B6D03F00803002B0CD1FD
S11324F07B6803F007037B60064BDB6F23F0070266
S113250004497B681343CB6700E000BF0C37BD462A
S113251080BC704700800C4080B586B000AF034695
S1132520FB710B46BB7113467B71FB79042B48D8B6
S113253001A252F823F000BF852500007725000092
S11325405B2500004D2500006925000001233B6147
S11325500223FB6001237B611DE004233B6108230C
S1132560FB6003237B6116E010233B612023FB60A7
S113257005237B610FE040233B618023FB6007233D
S11325807B6108E04FF480733B614FF40073FB60A0
S113259009237B6100BFBB79002B0ED00B4A3B693A
S11325A013627B79002B0DD000BF79690848FEF7D0
S11325B099FF0346002BF8D004E0044AFB68136239
S11325C000E000BF1837BD4680BD00BF00800C404E
S11325D02C800C4080B483B000AFEFF310833B60D9
S11325E03B687B6072B67B6818460C37BD4680BC7E
S11325F0704780B483B000AF78607B68002B00D153
S113260062B600BF0C37BD4680BC704780B500AFD2
S1132610FDF76EFE00BF80BD80B400AF034B002207
S1132620C3F8842000BFBD4680BC704700800C40C6
S113263080B400AF044B45F60E02C3F8842000BFFB
S1132640BD4680BC704700BF00800C4080B584B09C
S113265000AF0346FB71FB79002B0BD12B4BDB6ADC
S11326602B4A13601120FFF73FFD03461A46294BFE
S11326701A7047E0254BD3F8843003F00103FB6064
S1132680FFF7D6FF0023BB60214B1B6803F0010357
S1132690BA681343BB601E4B1B6803F01003BA688F
S11326A01343BB601A4B1B6803F04003BA6813431F
S11326B0BB60174B1B6803F00403BA681343BB6089
S11326C0134B1B6803F48073BA681343BB600F4A4F
S11326D0BB6813620F4B1B78052B05D00D4B1B7881
S11326E019461120FFF7AEFD094B1B6803F00103E7
S11326F0002B02D1054B02221A62FB68002B01D089
S1132700FFF78AFF00BF1037BD4680BD00800C4034
S1132710300100203401002080B483B000AF174B97
S11327201B699BB21B029BB203F47C53FB80134BCB
S11327309B691B091B0103F0F0039AB2FB88134346
S1132740FB800E4BDB691B0903F00F039AB2FB8875
S11327501343FB80FB88B3F5827F03D3FB88B3F577
S1132760017F01D1012300E0002303F00103DBB268
S113277018460C37BD4680BC704700BFD0FF0FE041
S113278080B400AF00BFBD4680BC704780B400AFCA
S113279000BFBD4680BC704780B586B000AF03461D
S11327A0FB71FB79002B02D00020FFF74FFF1F4B7A
S11327B01B691E4A43F004031361FFF7ADFF034690
S11327C0FB75FB7D002B11D0194B1A68194B134074
S11327D0FB60174AFB68C2F88030154B5B6823F036
S11327E046033B61124A3B69C2F88430FFF7C8FFD5
S11327F030BFFFF7CBFFFB7D002B05D00C4AFB68F5
S113280013600B4A3B695360FB79002B02D0012013
S1132810FFF71CFFFB7983F00103DBB2002B01D02F
S1132820FFF7F4FE00BF1837BD4680BD00ED00E0A1
S113283000E100E09CF1FD0080B487B000AFF860D7
S1132840B9607A60FB6803F10473DA00BB6813446F
S11328509B007B617B697A681A6000BF1C37BD46A8
S113286080BC704780B485B000AFF860B9607A600E
S1132870FB681A68BB68DB431A407B681A43FB6831
S11328801A6000BF1437BD4680BC704780B483B063
S113289000AF7860044A7B68C2F81C3100BF0C3773
S11328A0BD4680BC704700BF0060004080B483B068
S11328B000AF03463960FB71FB79002B0DD0FB7927
S11328C0012B0AD0FB79022B07D0FB79032B04D010
S11328D0FB79042B01D0FB79052B01223B6802FA1A
S11328E003F30749FA7918461346DB0013449B00A7
S11328F00B441433186000BF0C37BD4680BC7047CE
S11329000060004080B483B000AF03463960FB71BF
S1132910FB79002B0DD0FB79012B0AD0FB79022B1C
S113292007D0FB79032B04D0FB79042B01D0FB796E
S1132930052B01223B6802FA03F30749FA7918468A
S11329401346DB0013449B000B441033186000BF94
S11329500C37BD4680BC70470060004080B483B033
S113296000AF03460A46FB711346BB71FB79002B8B
S11329700ED0FB79012B0BD0FB79022B08D0FB790D
S1132980032B05D0FB79042B02D0FB79052B02D154
S1132990BB79032B00BF0C49FA791346DB001344BF
S11329A09B000B441B6823F00301BB790648FA79AA
S11329B019431346DB0013449B000344196000BF12
S11329C00C37BD4680BC70470060004080B586B0BF
S11329D000AFB9607A601A460346FB731346BB73B3
S11329E000237B61FB7B002B0DD0FB7B012B0AD0EA
S11329F0FB7B022B07D0FB7B032B04D0FB7B042B3C
S1132A0001D0FB7B052B7B68072B0ED87B689B00D2
S1132A10072202FA03F1FA7B7B689B0002FA03F3B4
S1132A201A461A48FFF71EFF10E07B68083B7B61DB
S1132A307B699B00072202FA03F1FA7B7B699B0006
S1132A4002FA03F31A461248FFF70CFFBB7B1A463F
S1132A5079681048FFF7F0FE97F820301A46796835
S1132A600D48FFF7E9FE01227B6802FA03F31846DA
S1132A70FFF70CFF97F824301A4679680748FFF7E8
S1132A80DBFE00BF1837BD4680BD00BF00610040BB
S1132A9004610040086100400C6100401061004086
S1132AA080B584B000AFB9607B600346FB73134606
S1132AB0BB73FB7B002B0DD0FB7B012B0AD0FB7B74
S1132AC0022B07D0FB7B032B04D0FB7B042B01D010
S1132AD0FB7B052BBB7B002B0DD07B68002B05D02B
S1132AE0FB7BB9681846FFF70DFF04E0FB7BB96870
S1132AF01846FFF7DBFEBB68072B20D82D49FA7B6D
S1132B001346DB0013449B000B4404331A68BB6870
S1132B109B000F2101FA03F3DB431340B97BBA682E
S1132B20920001FA02F211462248FA7B1943134635
S1132B30DB0013449B0003440433196025E01D4962
S1132B40FA7B1346DB0013449B000B4408331A68DA
S1132B50BB6803F18043083B9B000F2101FA03F398
S1132B60DB4302EA0301BA7BBB6803F18043083B01
S1132B709B0002FA03F30F48FA7B19431346DB0068
S1132B8013449B00034408331960BB7B002B0DD115
S1132B907B68002B05D0FB7BB9681846FFF7B2FEB3
S1132BA004E0FB7BB9681846FFF780FE00BF1037CE
S1132BB0BD4680BD0060004080B483B000AF0346D2
S1132BC0FB71FB79002B06D0084B1B68074A43F0C6
S1132BD00103136005E0054B1B68044A23F001035D
S1132BE0136000BF0C37BD4680BC704700A008408E
S1132BF080B487B000AFF860B9607A60FB6803F115
S1132C000473DA00BB6813449B007B617B697A68B8
S1132C101A6000BF1C37BD4680BC704780B584B0C5
S1132C2000AF78601A4B5B68FB600020FFF7C4FFBD
S1132C30FB6823F4830323F01F03FB607B685B685A
S1132C40FA681343FB607B681B7A1A46FB681343DC
S1132C50FB607B685B7A1A46FB681343FB607B6806
S1132C60DB68FA681343FB607B681B8A1A46FB68BF
S1132C701343FB60064AFB6853607B681B78002B98
S1132C8002D00120FFF798FF00BF1037BD4680BD7A
S1132C9000A0084080B485B000AF78600D4B5B683D
S1132CA0FB60FB6823F48033FB607B68002B08D057
S1132CB0B3F5803F00D005E0FB6843F48033FB604C
S1132CC000E000BF034AFB68536000BF1437BD46F1
S1132CD080BC704700A0084080B483B000AF0346B6
S1132CE00A46FB8013467B717B79002B06D0094B87
S1132CF09A68FB88074913438B6006E0054B9A6882
S1132D00FB88DB43034913408B6000BF0C37BD468F
S1132D1080BC704700A0084080B584B000AFF86064
S1132D20B9601346FB71FB68072B00F2B38001A264
S1132D3052F823F0552D00007D2D0000A52D000034
S1132D40CD2D0000F52D00001D2E0000452E0000A5
S1132D506D2E0000BB681F2B06DCBB68FA79194690
S1132D604F48FFF745FF96E0BB68203BBB60BB685C
S1132D70FA7919464B48FFF73BFF8CE0BB681F2BE1
S1132D8006DCBB68FA7919464748FFF731FF82E051
S1132D90BB68203BBB60BB68FA7919464348FFF720
S1132DA027FF78E0BB681F2B06DCBB68FA7919465D
S1132DB03F48FFF71DFF6EE0BB68203BBB60BB686C
S1132DC0FA7919463B48FFF713FF64E0BB681F2BF1
S1132DD006DCBB68FA7919463748FFF709FF5AE061
S1132DE0BB68203BBB60BB68FA7919463348FFF7E0
S1132DF0FFFE50E0BB681F2B06DCBB68FA7919465E
S1132E002F48FFF7F5FE46E0BB68203BBB60BB687C
S1132E10FA7919462B48FFF7EBFE3CE0BB681F2B01
S1132E2006DCBB68FA7919462748FFF7E1FE32E071
S1132E30BB68203BBB60BB68FA7919462348FFF79F
S1132E40D7FE28E0BB681F2B06DCBB68FA7919465D
S1132E501F48FFF7CDFE1EE0BB68203BBB60BB688C
S1132E60FA7919461B48FFF7C3FE14E0BB681F2B11
S1132E7006DCBB68FA7919461748FFF7B9FE0AE081
S1132E80BB68203BBB60BB68FA7919461348FFF75F
S1132E90AFFE00E000BF00BF1037BD4680BD00BFDD
S1132EA040A0084050A0084044A0084054A0084056
S1132EB048A0084058A008404CA008405CA0084026
S1132EC0CCA00840B4A00840D0A00840B8A0084056
S1132ED0D4A00840BCA00840D8A00840C0A0084026
S1132EE080B487B000AFF860B9607A60FB68072BE4
S1132EF000F2AC8001A252F823F000BF1D2F0000A5
S1132F00412F0000652F0000892F0000AD2F000025
S1132F10D52F0000FD2F0000253000004E4B1B6C08
S1132F207B61BB68DB437A6913407B61BA687B6869
S1132F3013407A6913437B61474A7B69136486E0D3
S1132F40454B5B6C7B61BB68DB437A6913407B61F7
S1132F50BA687B6813407A6913437B613E4A7B6994
S1132F60536474E03C4B9B6C7B61BB68DB437A69C4
S1132F7013407B61BA687B6813407A6913437B61B1
S1132F80354A7B69936462E0334BDB6C7B61BB68DD
S1132F90DB437A6913407B61BA687B6813407A69C2
S1132FA013437B612C4A7B69D36450E02A4BD3F8EA
S1132FB0CC307B61BB68DB437A6913407B61BA68C0
S1132FC07B6813407A6913437B61234A7B69C2F8A7
S1132FD0CC303CE0204BD3F8D0307B61BB68DB4382
S1132FE07A6913407B61BA687B6813407A6913433A
S1132FF07B61194A7B69C2F8D03028E0164BD3F8BC
S1133000D4307B61BB68DB437A6913407B61BA6867
S11330107B6813407A6913437B610F4A7B69C2F86A
S1133020D43014E00C4BD3F8D8307B61BB68DB435D
S11330307A6913407B61BA687B6813407A691343E9
S11330407B61054A7B69C2F8D83000E000BF00BF4D
S11330501C37BD4680BC704700A0084080B487B0D0
S113306000AFF860B9607A60FB68072B00F2AC80AF
S113307001A252F823F000BF99300000BD300000D7
S1133080E130000005310000293100005131000019
S113309079310000A13100004E4B1B6D7B61BB6890
S11330A0DB437A6913407B61BA687B6813407A69B1
S11330B013437B61474A7B69136586E0454B5B6D2F
S11330C07B61BB68DB437A6913407B61BA687B68C8
S11330D013407A6913437B613E4A7B69536574E00C
S11330E03C4B9B6D7B61BB68DB437A6913407B611E
S11330F0BA687B6813407A6913437B61354A7B69FC
S1133100936562E0334BDB6D7B61BB68DB437A69BB
S113311013407B61BA687B6813407A6913437B610F
S11331202C4A7B69D36550E02A4BD3F8B4307B61D9
S1133130BB68DB437A6913407B61BA687B681340E0
S11331407A6913437B61234A7B69C2F8B4303CE05B
S1133150204BD3F8B8307B61BB68DB437A691340FA
S11331607B61BA687B6813407A6913437B61194AAF
S11331707B69C2F8B83028E0164BD3F8BC307B61C9
S1133180BB68DB437A6913407B61BA687B68134090
S11331907A6913437B610F4A7B69C2F8BC3014E03F
S11331A00C4BD3F8C0307B61BB68DB437A691340B6
S11331B07B61BA687B6813407A6913437B61054A73
S11331C07B69C2F8C03000E000BF00BF1C37BD46B9
S11331D080BC704700A0084080B483B000AF786022
S11331E0064B5B6823F4E01204497B6813434B608D
S11331F000BF0C37BD4680BC704700BF00A008402C
S113320080B487B000AFF860B9607A60FB6803F1FE
S11332100473DA00BB6813449B007B617B697A68A2
S11332201A6000BF1C37BD4680BC704780B582B0B1
S113323000AF78600B46FB70FB78002B01D000F0E8
S1133240EFFA7B681B7D184600F022F97B685B78F7
S11332509B007A6892781A437B689B681A437B6860
S1133260DB681A437B68DB785B021A437B681B7953
S11332709B021A437B685B795B031A437B689B79E7
S11332805B041A437B68DB791B041A437B685B7C11
S11332909B053F4913430B607B681B78002118464C
S11332A000F0D6F87B681B7E1A467B68DB7E5B00E9
S11332B01A437B685B7E9B001A437B689B7E9B0161
S11332C01A437B681B7F1B011A437B685B7F1B02CD
S11332D01A437B689B7F9B021A437B681B6A1A43D1
S11332E07B6893F824301B051A437B6893F82530D8
S11332F09B051A437B689B6A254913438B607B6853
S11333009B8D1A467B6893F83B309B021A437B687B
S113331093F83C309B031A437B6893F83D309B043D
S11333201A437B6893F83E309B051A437B6893F8F5
S113333034305B001A437B6893F835309B001A43A2
S11333407B6893F83630DB001A437B6893F8373098
S11333501B011A437B6893F838305B011A437B687E
S113336093F839309B011A437B6893F83A30DB01B8
S113337007491343CB607B681B6B184600F0F2F9D6
S11333807B681A7C024B1A6100BF0837BD4680BDBA
S113339000C0084080B588B000AF78603960002371
S11333A0FB610123BB613F237B617B68002B03D15D
S11333B02548FEF799FD78603B68002B0CD03A68ED
S11333C07B689A4200BF07E0FB690133FB6101227D
S11333D0FB6902FA03F3BB613B68BA6902FB03F3BE
S11333E07A68B2FBF3F27B6901339A4202D9FB6932
S11333F0062BE9D93B68BA6902FB03F37A68B2FB8E
S1133400F3F3013B7B61114B5B6823F47F2323F4CB
S1133410E0633B61FB691A027B691B0313433A694E
S113342013433B61094A3B6953607B690133BA69C1
S113343002FB03F37A68B2FBF3F3FB60FB68184604
S11334402037BD4680BD00BF80062E0000C0084066
S113345080B584B000AF03460A46FB711346BB71C6
S11334600A4B1B6823F00303FB60FB79FA681343E0
S1133470FB60064AFB681360BB79002B01D000F0A7
S113348081F900BF1037BD4680BD00BF00C00840B1
S113349080B485B000AF0346FB71094B5B6823F42D
S11334A04003FB60FB799B05FA681343FB60044A05
S11334B0FB68536000BF1437BD4680BC704700BF33
S11334C000C0084080B485B000AF03460A46FB71D3
S11334D01346BB71FB79002B0FD0012B00D01AE0EF
S11334E00F4B5B6823F00303FB60BB79FA6813435B
S11334F0FB600B4AFB6853600DE0094B5B6823F0EB
S11335007003FB60BB791B01FA681343FB60044A38
S1133510FB68536000BF00BF1437BD4680BC7047D2
S113352000C0084080B584B000AF78600023FB6021
S11335300AE0FB685B017A681344F968184600F0F6
S11335400BF8FB680133FB60FB680F2BF1D900BF5C
S11335501037BD4680BD000080B584B000AF7860F0
S113356039607B685B68B3F5C03F7B681B7A032BCB
S11335700AD13B680C2B07D03B680D2B04D03B6869
S11335800E2B01D03B680F2B00BF7B681B7A032BEB
S11335900AD13B68002B07D03B68012B04D03B6861
S11335A0022B01D03B68032B00BF394B9A6B3B685D
S11335B05B00032101FA03F3DB431340FB607B68E8
S11335C01B7A1A463B685B0002FA03F3FA6813435A
S11335D0FB602F4AFB6893633B68D8B27B68D97B56
S11335E07B681A7C7B685B8A00F05AF87B685B7B9B
S11335F05A047B689B7B9B0413437A68D28A1343E7
S11336007A68128B1A437B685B681A437B685B7A1F
S1133610DB041F491A433B682C331B010B4404335E
S11336201A607B68DA697B689B7A5B041A437B685F
S11336301B7B9B041A437B68DB7ADB0414491A4323
S11336403B681B010B4403F532731A603B68D8B224
S11336507B68998A7B685B8B1A4600F045F87B6827
S11336609B781A4639680B48FFF7CAFD7B685B787C
S11336701A4639680848FFF7C3FD7B681B781A4669
S113368039680648FFF7BCFD00BF1037BD4680BD52
S113369000C008404CC0084054C0084018C008404E
S11336A090B482B000AF0446084611461A46234639
S11336B0FB710346BB710B467B7113467B80BA7961
S11336C07B799B0142EA03017B885A030548FB7915
S11336D00A432C331B0103441A6000BF0837BD465C
S11336E090BC704700C0084080B485B000AF03466A
S11336F0FB710B46BB8013467B80194AFB792C3344
S11337001B01134404331B6823F47F6323F00F036A
S1133710FB60BB88FA681343FB60114AFB792C33C6
S11337201B0113440433FA681A600D4AFB791B0128
S1133730134403F532731B681B0C1B04FB607B886A
S1133740FA681343FB60064AFB791B01134403F533
S11337503273FA681A6000BF1437BD4680BC7047E4
S113376000C0084080B483B000AF7860044A7B682E
S113377003F00F03136300BF0C37BD4680BC7047D2
S113378000C0084080B400AF00BF0A4B1B6D03F0BB
S11337902003002BF9D1074B01225A6100BF054BCE
S11337A01B6D03F02003002BF9D100BFBD4680BC84
S11337B0704700BF00C0084080B400AF00BF0A4B90
S11337C01B6D03F02003002BF9D1074B02225A6131
S11337D000BF054B1B6D03F02003002BF9D100BF84
S11337E0BD4680BC704700BF00C0084080B400AF35
S11337F000BF0A4B1B6D03F02003002BF9D1074BCC
S113380008225A6100BF054B1B6D03F02003002BF7
S1133810F9D100BFBD4680BC704700BF00C008405E
S113382080B483B000AF384B0022DA64364B374A99
S11338305A64354BDB68344A43F00103D36000BF5C
S1133840314B1B6D03F02003002BF9D12E4B0A22C0
S11338505A612D4B00221A602B4B00229A602A4B8E
S11338600022DA60284B00221A61274B00229A6159
S1133870254B00229A63244B0022DA63224B002258
S11338805A6500237B6019E01F4A7B682C331B01B7
S1133890134400221A601C4A7B682C331B01134416
S11338A0043300221A60184A7B681B01134403F591
S11338B0327300221A607B6801337B607B680F2BB4
S11338C0E2D900237B600FE00F4A7B68403300217C
S11338D042F833100C4A7B684033DB001344002267
S11338E05A607B6801337B607B680F2BECD900BF87
S11338F0054B1B6D03F02003002BF9D100BF0C37DF
S1133900BD4680BC704700BF00C00840FFFF7F0079
S113391080B485B000AF786039607B68002B02D03A
S1133920012B03D008E0064BFB6002E0054BFB6073
S113393000BFFB683A681A601437BD4680BC704704
S1133940080008400C00084080B485B000AF7860DF
S11339507B681B78002B02D00123FB6001E000236D
S1133960FB607B685B78002B03D0FB6843F00203A9
S1133970FB607B689B78002B03D0FB6843F0040357
S1133980FB60044AFB68136000BF1437BD4680BC6B
S1133990704700BF0000084080B485B000AF786075
S11339A01A4B5B69DBB29B00DBB203F03C03FB7395
S11339B0164B1B699B09DBB203F00303DAB2FB7BF2
S11339C01343FB737B68FA7B9A70104B1B69DBB261
S11339D003F03F03DAB27B685A700C4B9B691B09F6
S11339E0DBB21B01FB73094BDB691B09DBB203F080
S11339F00F03DAB2FB7B1343FB737B68FA7B1A7009
S1133A0000BF1437BD4680BC704700BFD0FF0FE035
S1133A1080B400AF4FF080439B6803F00103002B98
S1133A2001D0012300E000231846BD4680BC704746
S1133A3080B483B000AF78604FF080427B689361BC
S1133A4000BF0C37BD4680BC704780B582B000AF64
S1133A5078607B68DB68002B02D07B68DB68012B15
S1133A6000BF7B685B68002B03DB7B685B680F2B04
S1133A7000BF7B681B78002B08D04FF080431B6885
S1133A804FF0804243F08043136007E04FF08043DF
S1133A901B684FF0804223F0804313604FF0804353
S1133AA01B684FF0804223F0706313604FF0804333
S1133AB01B687A685268120611464FF080420B4325
S1133AC013607B681B7A002B08D04FF080431B687F
S1133AD04FF0804243F40033136007E04FF080431B
S1133AE01B684FF0804223F4003313607B685B7AD9
S1133AF0002B08D04FF080431B684FF0804243F402
S1133B008033136007E04FF080431B684FF080421E
S1133B1023F4803313604FF080431B684FF08042DE
S1133B2023F4E06313604FF080431B687A68927A51
S1133B30120211464FF080420B4313607B68DB7A1C
S1133B40002B0BD0012B00D011E04FF080431B68F9
S1133B504FF0804243F01003136008E04FF08043BD
S1133B601B684FF0804223F01003136000BF4FF036
S1133B7080431B687A68D268920011464FF08042F5
S1133B800B4313607B685B69184600F050F87B6850
S1133B901B7E002B08D04FF080431B684FF08042FF
S1133BA043F00103136007E04FF080431B684FF0BC
S1133BB0804223F0010313607B681B7C002B11D02F
S1133BC07B681B7E002B0DD000BFFFF721FF03464F
S1133BD083F00103DBB2002BF7D17B681B7C184612
S1133BE000F007F80120FFF723FF00BF0837BD46A8
S1133BF080BD80B483B000AF0346FB71FB79002B1A
S1133C0008D04FF080435B684FF0804243F48073E8
S1133C10536007E04FF080435B684FF0804223F429
S1133C208073536000BF0C37BD4680BC704780B4BE
S1133C3083B000AF78607B68002B02DD7B683F2B8C
S1133C4000BF4FF080435B6823F03F027B684FF076
S1133C50804113434B6000BF0C37BD4680BC7047A6
S1133C6090B583B000AFFEF7B5FC78601A4B1B78B3
S1133C7083F00103DBB2002B25D0184B00221A601D
S1133C80174B00221A60174B00221A8000F084FBA5
S1133C90012000F015FC00F065FC0246124B1A608E
S1133CA0114B1B684FF000041A4623460F4840F29C
S1133CB0E73101F0C9FC03460C461A460C4B1A6066
S1133CC0054B01221A707868FEF793FC002318460E
S1133CD00C37BD4690BD00BF440100203C010020CC
S1133CE040010020360100203801002018FCFFFFAD
S1133CF04801002080B58AB004AFF860B9607A60EA
S1133D003B600023FB75FB68002B01D1222318E0E4
S1133D1007F117031946F86800F056F8FB7D002BED
S1133D2001D003230DE0BB8C029397F8203001935C
S1133D303B6800937B680022B968F86800F050FA89
S1133D40034618461837BD4680BD000080B586B0CE
S1133D5000AF78600023FB757B68002B01D1222320
S1133D602CE0FEF737FC386100F002FA154B1B68B3
S1133D707A689A4201D10123FB75786800F0A2F9B0
S1133D80F860FB68002B04D03869FEF732FCFB684E
S1133D9014E0FB7D002B06D00A4B1B68002B02D0DD
S1133DA000F0CEF906E0074B1B68002B02D102207D
S1133DB000F0B2FB3869FEF71CFC002318461837E4
S1133DC0BD4680BD3C01002080B584B000AF786062
S1133DD039607B68002B02D03B68002B01D1222381
S1133DE022E03B6800221A70FEF7F4FBB860104B27
S1133DF01B68FB600AE0FA687B689A4203D13B685F
S1133E0001221A7002E0FB689B68FB60FB68002BD0
S1133E1006D03B681B7883F00103DBB2002BEAD1A8
S1133E20B868FEF7E6FB002318461037BD4680BD90
S1133E303C010020B0B582B000AF78603960144B0B
S1133E401B687A689A421DD87B6819464FF00002B5
S1133E50104B1B684FF0000403FB02F501FB04F058
S1133E600544A1FB03016B1819464FF47A724FF015
S1133E70000301F0E9FB03460C465A1C3B681A6038
S1133E80002300E0212318460837BD46B0BD00BF1B
S1133E90480100203801002080B58AB000AF0346F5
S1133EA0FB71FB7903F00103002B0ED0544B1B88EC
S1133EB09BB201339AB2524B1A8000F059F9514B1C
S1133EC01B68002B01D000F03BF9FB7903F00203DF
S1133ED0002B00F0918000233B6200F087FAF86128
S1133EE0494B1B68FA69D31A3B62FEF773FB78628D
S1133EF060E03B6ABB61434B1B687B61414B1B68C1
S1133F003B61414AFB6913600FE07B691A793B69A5
S1133F101B799A4201D93B697B613B695B69BA6948
S1133F20D31ABB613B699B683B613B69002B04D09E
S1133F303B695B69BA699A42E7D2786AFEF759FB32
S1133F407B695B693A6AD31A3B627B6900225A61D6
S1133F50FEF740FB7862786900F0B4F8786AFEF7FF
S1133F6048FB7B691B69002B0BD0FEF733FB78629F
S1133F707B691B691946786900F048F8786AFEF78E
S1133F8038FB7B69DB68002B06D07B69DB687A69C8
S1133F90126811467869984700F028FAF860FA68C0
S1133FA0FB69D31A3A6A13443B62FB68FB61FEF770
S1133FB011FB7862134B1B68002B05D0114B1B6857
S1133FC05B693A6A9A4294D20E4B1B68002B0DD05F
S1133FD00C4B1B6859690B4B1B683A6A8A1A5A6165
S1133FE0094AFB69136000F0ABF802E0022000F01C
S1133FF093FA786AFEF7FDFA00BF2837BD4680BD04
S1134000360100203C0100204001002080B487B02C
S113401000AF786039603B687B617B687A695A617C
S1134020274B1B68002B40D000233B61244B1B68AB
S1134030FB600CE0FB685B697A69D31A7B617B687F
S11340407A695A61FB683B61FB689B68FB60FB68AB
S1134050002B13D0FB685B697A699A42EAD2FB6849
S11340605B69002BE6D0FB685B697A699A4205D1EB
S11340707B681A79FB681B799A42DBD83B69002B71
S113408003D03B697A689A6002E00D4A7B6813604A
S11340907B68FA689A60FB68002B0CD0FB685A694D
S11340A07B69D21AFB685A6105E0054A7B68136094
S11340B07B6800229A6000BF1C37BD4680BC7047F5
S11340C03C01002080B485B000AF78600023FB6021
S11340D01A4B1B68BB6004E0BB68FB60BB689B6851
S11340E0BB60BB68002B03D0BA687B689A42F3D1EB
S11340F0BA687B689A4201D0022319E0FB68002B5E
S113410004D07B689A68FB689A6003E07B689B68CC
S11341100A4A13607B689B68002B08D07B689B6805
S113412059697B685A697B689B680A445A61002311
S113413018461437BD4680BC704700BF3C010020C0
S113414080B582B000AF084B1B685A69074B1B68E7
S113415013447B60022000F0B3F9786800F068F93A
S113416000BF0837BD4680BD3C010020400100204F
S113417080B582B000AF00F039F97860164B1B6847
S1134180002B22D0154B1B687A68D31A3B60124B64
S11341901B685B693A689A420BD80F4B1B685969D4
S11341A00D4B1B683A688A1A5A610C4A7B68136083
S11341B00EE0094B1B685B697A68D31A074A1360DF
S11341C0054B1B6800225A6102E0044A7B681360B5
S11341D000BF0837BD4680BD3C01002040010020DF
S11341E080B586B000AFF860B9607A603B60FB6868
S11341F097F824201A71FB683A6A1A60FB68002257
S11342009A60FB687A681A61FB683A68DA60FB684E
S11342103A8DDA80BB68002B15D1FB6800225A6105
S1134220FB68DB68002B06D0FB68DB68FA68126861
S11342301146F86898477B68002B02D07B68BB6006
S113424001E0002313E0FEF7C5F97861FFF790FF62
S1134250B968F868FFF7DAFE074B1B68FA689A42F8
S113426001D1FFF76DFF7869FEF7C3F90023184603
S11342701837BD4680BD00BF3C01002080B483B028
S113428000AF0346FB7197F90730002B0BDBFB797A
S113429003F01F02064997F907305B09012000FA71
S11342A002F241F8232000BF0C37BD4680BC7047A2
S11342B000E100E080B483B000AF0346FB7197F9DE
S11342C00730002B0CDBFB7903F01F02074997F939
S11342D007305B09012000FA02F2603341F8232021
S11342E000BF0C37BD4680BC704700BF00E100E052
S11342F080B400AF024B5B681846BD4680BC704773
S11343000000084080B483B000AF7860034A7B6843
S1134310536000BF0C37BD4680BC704700000840A6
S113432080B483B000AF7860034A7B68936100BFB8
S11343300C37BD4680BC70470000084080B483B091
S113434000AF7860054BDA697B68DB4303491340AF
S1134350CB6100BF0C37BD4680BC704700000840ED
S113436080B483B000AF7860054BDA6904497B6898
S11343701343CB6100BF0C37BD4680BC704700BF00
S11343800000084080B400AF024B1B691846BD46CC
S113439080BC70470000084080B582B000AF0121A6
S11343A01148FDF70BFC01210F48FDF739FD0023EF
S11343B0BB7100237B7101233B713B1D1846FFF742
S11343C0C3FA0720FFF7BAFF0720FFF7A9FF002071
S11343D0FFF798FF1E20FFF76DFF1E20FFF74EFF2B
S11343E000BF0837BD4680BD8016120080B582B07C
S11343F000AFFFF77DFF78600C4B1B78DBB27B804E
S1134400FFF7C0FF034603F00103002B05D0FFF7BD
S11344106FFF78607B8801337B807B881A067B681A
S1134420134318460837BD4680BD00BF4C01002029
S113443080B584B000AF7860FFF7D8FFB8607B68C0
S1134440FB60FFF79FFF034603F00403002B0DD12D
S11344501A4B1B68B968184600F0EAF80346022BA9
S113446004D8164B1B68BA689A4222D1B968F86816
S113447000F0DEF80346012B02D8BB680233FB6070
S11344800E4AFB6813600D4B1A68BB68D31AB3F16C
S1134490807F0BD2094B1B6823F07F431946012010
S11344A0FFF736FA022000F00BF802E0022000F0D9
S11344B033F800BF1037BD4680BD00BF5001002057
S11344C080B584B000AF0346FB710023FB60FB7929
S11344D003F00103002B03D0FB6843F00103FB60EE
S11344E0FB7903F00203002B0DD00A4B1B78002B41
S11344F005D00420FFF714FF064B00221A70FB6856
S113450043F00403FB60F868FFF72AFF00BF10378D
S1134510BD4680BD4D00002080B584B000AF034689
S1134520FB710023FB60FB7903F00103002B03D034
S1134530FB6843F00103FB60FB7903F00203002BEB
S113454006D0FB6843F00403FB60054B01221A709C
S1134550F868FFF7F3FE00BF1037BD4680BD00BF0B
S11345604D00002080B500AF0248FDF7BDFC0346B6
S1134570184680BD8016120080B584B000AF0023B9
S1134580FB730023BB60FEF725F87860FFF7FAFEA3
S113459038603B6803F00103002B27D0224B1B78C3
S11345A0DBB21B06B3F17F4F03D1FB7B43F0010366
S11345B0FB731D4B1B78DBB20133DAB21A4B1A7052
S11345C01A4B1B68BB60184B1B78DBB21B061A46E0
S11345D0BB689B1ABB60BB68B3F1807F06D2B96825
S11345E00120FFF795F90220FFF76AFF3B6803F00B
S11345F00403002B03D0FB7B43F00203FB733B68F3
S113460003F005031846FFF78BFEFB7B002B03D05A
S1134610FB7B1846FFF740FC7868FDF7EAFF00BF14
S11346201037BD4680BD00BF4C0100205001002062
S113463080B483B000AF786039607A683B68D31A7D
S113464018460C37BD4680BC7047000080B483B068
S113465000AF0346FB7197F90730002B0BDBFB79A6
S113466003F01F02064997F907305B09012000FA9D
S113467002F241F8232000BF0C37BD4680BC7047CE
S113468000E100E080B483B000AF0346FB7197F90A
S11346900730002B0CDBFB7903F01F02074997F965
S11346A007305B09012000FA02F2603341F823204D
S11346B000BF0C37BD4680BC704700BF00E100E07E
S11346C080B483B000AF03463960FB7197F90730BB
S11346D0002B0ADB3B68DAB20C4997F90730520128
S11346E0D2B20B4483F800230AE03B68DAB20849EB
S11346F0FB7903F00F03043B5201D2B20B441A7648
S113470000BF0C37BD4680BC704700BF00E100E02D
S113471000ED00E080B582B000AF78607B68013BBB
S1134720B3F1807F01D301230FE00A4A7B68013B88
S1134730536007214FF0FF30FFF7C2FF054B002203
S11347409A60044B07221A60002318460837BD46B6
S113475080BD00BF10E000E080B500AFFBF7C8FDEE
S113476000BF80BD80B400AF034BDB6C1B0EDBB21B
S11347701846BD4680BC7047B081E00F80B483B05A
S113478000AF7860044A7B68C2F81C3100BF0C3764
S1134790BD4680BC704700BF0060004080B584B057
S11347A002AF396011461A460346FB710B46BB71D2
S11347B013467B71BA79F8793B7C01937B7900933A
S11347C013463A683968FEF701F900BF0837BD4659
S11347D080BD000080B582B000AF0E4B01221A6488
S11347E0FFF7C0FF0346FB713B1D1846FFF7D4F8E3
S11347F0FB790F2B0AD93B79022B07D9064B1B688F
S113480023F05003044A43F01003136000BF083739
S1134810BD4680BD00000C40C0800C4080B588B00F
S113482002AFF860B9607A603B6007F11003194683
S1134830B868FFF7FFFA78617B69002B01D07B69C8
S11348400BE03969BB8C019397F8203000933B68E7
S11348507A68F868FFF74EFA034618461837BD46DB
S113486080BD80B483B000AF7860396000BF0C377E
S1134870BD4680BC7047000080B500AF4FF40070A7
S1134880FFF77CFF024B01221A7000BF80BD00BFFE
S11348909801002080B500AF4FF48060FFF76EFFF1
S11348A0064B1B78DBB283F00103DBB2002B02D092
S11348B0024B01221A7000BF80BD00BF75010020A9
S11348C080B582B002AF01211648FDF7A9FA002392
S11348D0012209210120FEF7E3F8002301220A2125
S11348E00120FEF7DDF801230093012300220921B2
S11348F00120FFF753FF01230093012300220A2123
S11349000120FFF74BFF0120FFF7BCFE0120FFF75A
S11349109DFE0B20FFF7B6FE0B20FFF797FE00BFAE
S1134920BD4680BD00D2040080B400AF044B1B68B8
S11349300133034A136000BFBD4680BC704700BF0B
S1134940A001002080B485B000AF7860074B1B68DD
S1134950FB6000BF054B1A68FB68D31A7A689A4259
S1134960F8D800BF1437BD4680BC7047A0010020B2
S113497080B582B000AF284B1B78DBB2002B0AD085
S1134980264B1B68264A1360244B1B68254A136078
S1134990214B00221A70244B1B78DBB2002B0ED162
S11349A0204B1A681E4B1B68D31A204A12686FF0FA
S11349B0E00101FB02F202F69802934224D901F0CD
S11349C02DF803465A4203F0030302F0030258BFD2
S11349D0534201337B601648FCF7A8FB7B685B00FD
S11349E00B33012219460120FEF796F9114A7B6820
S11349F01360114B1B6801330F4A13600A4B0022EA
S1134A001A70054B01221A70044B1B68054A136087
S1134A1000BF0837BD4680BD4E000020A001002025
S1134A207C010020800100204F000020780100203C
S1134A30306B00009C0100206C01002080B584B024
S1134A4000AF78607B68B3F1FF3F03D14FF0FF33D1
S1134A50BB6008E07B68DB00114A82FB0312D210C2
S1134A60DB17D31ABB600023FB600FE0FA68BB6856
S1134A709A4204DC0121F868FCF7C4FB03E000213E
S1134A80F868FCF7BFFBFB680133FB60FB68072B8E
S1134A90ECDD044ABB68136000BF1037BD4680BD1F
S1134AA0ABAAAA2A7801002080B582B000AF786052
S1134AB07B68002B1ADD7B680C2B17DC01220E218E
S1134AC00720FEF729F9002210210720FEF724F918
S1134AD0002212210720FEF71FF900221C210720C3
S1134AE0FEF71AF9304B00221A7059E07B680C2B40
S1134AF01ADD7B68182B17DC00220E210720FEF735
S1134B000BF9012210210720FEF706F900221221D9
S1134B100720FEF701F900221C210720FEF7FCF80C
S1134B20214B01221A703BE07B68182B1ADD7B684D
S1134B30242B17DC00220E210720FEF7EDF80022BB
S1134B4010210720FEF7E8F8012212210720FEF7C2
S1134B50E3F800221C210720FEF7DEF8124B0222A4
S1134B601A701DE07B68242B1ADD7B68302B17DC60
S1134B7000220E210720FEF7CFF800221021072083
S1134B80FEF7CAF8002212210720FEF7C5F8012219
S1134B901C210720FEF7C0F8034B03221A70FFE71D
S1134BA000BF0837BD4680BD7401002080B483B0C7
S1134BB000AF7860064B1B687A689A420CBF0123E9
S1134BC00023DBB218460C37BD4680BC704700BFDB
S1134BD09C01002080B582B000AF78607868FFF750
S1134BE0E5FF0346002B00F083807B68013B032B29
S1134BF07ED801A252F823F0094C0000434C000077
S1134C007D4C0000B74C000000220D210120FEF76E
S1134C1083F84FF4FA70FFF795FE01220D2101206D
S1134C20FEF77AF84FF4FA70FFF78CFE00220D219C
S1134C300120FEF771F8304B1B6801332E4A1360D4
S1134C4056E000220F210120FEF766F84FF4FA70B7
S1134C50FFF778FE01220F210120FEF75DF84FF4E3
S1134C60FA70FFF76FFE00220F210120FEF754F8BF
S1134C70214B1B680133204A136039E000221121C3
S1134C800120FEF749F84FF4FA70FFF75BFE0122AA
S1134C9011210120FEF740F84FF4FA70FFF752FE9D
S1134CA0002211210120FEF737F8134B1B68013352
S1134CB0114A13601CE0002213210120FEF72CF896
S1134CC04FF4FA70FFF73EFE012213210120FEF794
S1134CD023F84FF4FA70FFF735FE00221321012068
S1134CE0FEF71AF8044B1B680133034A136000BF34
S1134CF000BF0837BD4680BD7001002080B500AFFD
S1134D00012221210420FEF707F801222221042098
S1134D10FEF702F8012222210220FDF7FDFF012205
S1134D2021210620FDF7F8FF00BF80BD80B586B0C5
S1134D3000AF204B1B68642202FB03F21E4B1B686E
S1134D4092FBF3F37B611C4B00221A60194B002287
S1134D501A601A4B3B6107F10C037A69184918462B
S1134D6000F090FE3B1D3969184600F0BAFE7B69DD
S1134D70092B04DC3B1D1349184600F0A3FE07F180
S1134D800C023B1D1146184600F09CFE3B1D1846C4
S1134D90FCF7CCF9FFF7B2FF41F28830FFF7D2FD00
S1134DA0FBF7FAFE084B00221A7000BF1837BD4605
S1134DB080BD00BF700100206C010020386B000032
S1134DC0406B0000446B00007501002080B500AF0B
S1134DD0012227210520FDF79FFF094B1B68642250
S1134DE002FB03F2074B1B6813441846FCF756F802
S1134DF0034B1B68192B01D1FFF798FF00BF80BD3F
S1134E006C0100207001002080B500AF01220D214B
S1134E100520FDF781FF4FF4FA70FFF793FD0022A0
S1134E200D210520FDF778FF01220E210320FDF757
S1134E3073FF4FF4FA70FFF785FD0120FFF7CAFEF8
S1134E4000220E210320FDF767FF00BF80BD80B55F
S1134E5000AF01220F210520FDF75EFF4FF4FA7029
S1134E60FFF770FD00220F210520FDF755FF0122F9
S1134E7010210320FDF750FF4FF4FA70FFF762FD95
S1134E800220FFF7A7FE002210210320FDF744FFB4
S1134E9000BF80BD80B500AF012211210520FDF7C0
S1134EA03BFF4FF4FA70FFF74DFD0022112105205E
S1134EB0FDF732FF012212210320FDF72DFF4FF4ED
S1134EC0FA70FFF73FFD0320FFF784FE0022122152
S1134ED00320FDF721FF00BF80BD80B500AF012294
S1134EE013210520FDF718FF4FF4FA70FFF72AFD90
S1134EF0002213210520FDF70FFF01221C210320AE
S1134F00FDF70AFF4FF4FA70FFF71CFD0420FFF7CA
S1134F1061FE00221C210320FDF7FEFE00BF80BDC0
S1134F2080B400AF00BFBD4680BC704780B400AF02
S1134F30034B03221A7000BFBD4680BC704700BFFC
S1134F405000002080B584B002AF554B1B78FB7134
S1134F50FEF786FE53495448FBF772FC534B1B780B
S1134F605BB2032B00F29A8001A252F823F000BF37
S1134F70974F0000B54F0000814F00009D4F000087
S1134F800120FBF793FBFBF717FFFCF7BDF9474B39
S1134F9000221A7083E0FBF789FD80E00020FBF714
S1134FA085FB3F4B1B781846FBF71CFF3F4B012248
S1134FB01A7074E0FBF77AFDFBF7C8FC38603B68B5
S1134FC0B3F1FF3F0DD03A48FEF7C0FE0023019332
S1134FD0002300930023374A4FF47A713448FFF7D3
S1134FE01DFC354B1B78DBB283F00103DBB2002BD5
S1134FF006D03868FFF722FD3048FCF797F8ADE794
S1135000FFF7B6FC3868FFF74FFD2D4B1B78DBB27A
S1135010002B1BD02B4B1B78DBB2032B16D801A221
S113502052F823F0355000003B500000415000007E
S113503047500000FFF7E8FE08E0FFF708FF05E02F
S1135040FFF728FF02E0FFF748FF00BF1C4B0022D8
S11350501A70FFF7BBFEFCF747F91B48FCF760F931
S11350600346002B16D00E4B01221A700C4B1B78F2
S1135070FA799A420AD00A4B1B781846FBF7B2FE1B
S1135080074B1B7819460120FBF7C4FF044B1B7820
S1135090FB7104E0024B00221A7000E000BF5DE7E0
S11350A0840100202D4F0000214F000050000020FB
S11350B0540100206348000075010020486B000083
S11350C098010020740100209A99394098B500AFE6
S11350D0FFF780FB01211A48FCF7A2FE002000F034
S11350E011FD03460C46184600F074FCFFF734FB30
S11350F00120FBF7E2FCFFF7E3FBFBF749F811485B
S1135100FCF7F2FE0246104BA3FB02239B09184650
S1135110FFF700FB0346002B00D0FEE70020FBF75F
S113512061FEFBF78FFD4FF4FA70FFF70BFCFBF702
S113513033FD4FF4FA70FFF705FCFFF703FFFEE7BA
S11351400052040070000200D34D621080F0004051
S113515002E000BF81F0004142001FBF5FEA41034B
S113516092EA030F7FEA226C7FEA236C6AD04FEA4B
S11351701262D2EB1363C1BFD21841404840414090
S1135180B8BF5B42192B88BF704710F0004F40F442
S1135190000020F07F4018BF404211F0004F41F45E
S11351A0000121F07F4118BF494292EA030F3FD02A
S11351B0A2F1010241FA03FC10EB0C00C3F120033D
S11351C001FA03F100F0004302D5494260EB4000CC
S11351D0B0F5000F13D3B0F1807F06D340084FEA37
S11351E0310102F10102FE2A51D2B1F1004F40EB2C
S11351F0C25008BF20F0010040EA03007047490094
S113520040EB000010F4000FA2F10102EDD1B0FA5E
S113521080FCACF1080CB2EB0C0200FA0CF0AABF53
S113522000EBC25052421843BCBFD04018437047F1
S113523092F0000F81F4000106BF80F400000132F7
S1135240013BB5E74FEA41037FEA226C18BF7FEACE
S1135250236C21D092EA030F04D092F0000F08BF10
S11352600846704790EA010F1CBF0020704712F0F7
S11352707F4F04D1400028BF40F00040704712F136
S113528000723CBF00F50000704700F0004343F09B
S1135290FE4040F4000070477FEA226216BF0846D1
S11352A07FEA23630146420206BF5FEA412390EA94
S11352B0010F40F4800070474FF0000304E000BF8A
S11352C010F0004348BF40425FEA000C08BF70473B
S11352D043F0964301464FF000001CE050EA0102FF
S11352E008BF70474FF000030AE000BF50EA010214
S11352F008BF704711F0004302D5404261EB410101
S11353005FEA010C02BF84460146002043F0B64325
S113531008BFA3F18053A3F50003BCFA8CF2083A4A
S1135320A3EBC25310DB01FA02FC634400FA02FC53
S1135330C2F12002BCF1004F20FA02F243EB02005A
S113534008BF20F00100704702F1200201FA02FCBC
S1135350C2F1200250EA4C0021FA02F243EB0200AF
S113536008BF20EADC7070474FF0FF0C1CEAD052F3
S11353701EBF1CEAD15392EA0C0F93EA0C0F6FD0B4
S11353801A4480EA010C400218BF5FEA41211ED092
S11353904FF0006343EA501043EA5111A0FB01317E
S11353A00CF00040B1F5000F3EBF490041EAD37153
S11353B05B0040EA010062F17F02FD2A1DD8B3F1CF
S11353C0004F40EBC25008BF20F00100704790F03E
S11353D0000F0CF0004C08BF49024CEA502040EA90
S11353E051207F3AC2BFD2F1FF0340EAC250704756
S11353F040F400004FF00003013A5DDC12F1190F94
S1135400DCBF00F000407047C2F10002410021FA05
S113541002F1C2F1200200FA02FC5FEA310040F11D
S1135420000053EA4C0308BF20EADC70704792F096
S1135430000F00F0004C02BF400010F4000F013ACE
S1135440F9D040EA0C0093F0000F01F0004C02BFC9
S1135450490011F4000F013BF9D041EA0C018FE738
S11354600CEAD15392EA0C0F18BF93EA0C0F0AD03E
S113547030F0004C18BF31F0004CD8D180EA010064
S113548000F00040704790F0000F17BF90F0004FFD
S1135490084691F0000F91F0004F14D092EA0C0FDF
S11354A001D142020FD193EA0C0F03D14B0218BF72
S11354B0084608D180EA010000F0004040F0FE40B8
S11354C040F40000704740F0FE4040F44000704754
S11354D04FF0FF0C1CEAD0521EBF1CEAD15392EAD3
S11354E00C0F93EA0C0F69D0A2EB030280EA010CC3
S11354F049024FEA402037D04FF0805343EA11115C
S113550043EA10130CF000408B4238BF5B0042F1B9
S11355107D024FF4000C8B4224BF5B1A40EA0C005E
S1135520B3EB510F24BFA3EB510340EA5C00B3EB90
S1135530910F24BFA3EB910340EA9C00B3EBD10F7E
S113554024BFA3EBD10340EADC001B0118BF5FEAD0
S11355501C1CE0D1FD2A3FF650AF8B4240EBC250F9
S113556008BF20F0010070470CF0004C4CEA5020BA
S11355707F32C2BFD2F1FF0340EAC250704740F409
S113558000004FF00003013A37E792F0000F00F0FB
S1135590004C02BF400010F4000F013AF9D040EA79
S11355A00C0093F0000F01F0004C02BF490011F40D
S11355B0000F013BF9D041EA0C0195E70CEAD15305
S11355C092EA0C0F08D142027FF47DAF93EA0C0FEC
S11355D07FF470AF084676E793EA0C0F04D14B02D0
S11355E03FF44CAF08466EE730F0004C18BF31F082
S11355F0004CCAD130F000427FF45CAF31F000437C
S11356007FF43CAF5FE700BF42000ED2B2F1FE4F21
S11356100BD34FF09E03B3EB126209D44FEA00237D
S113562043F0004323FA02F070474FF00000704744
S113563012F1610F01D1420202D14FF0FF307047E5
S11356404FF00000704700BF53B94AB9002908BFA2
S113565000281CBF4FF0FF314FF0FF3000F074B949
S1135660ADF1080C6DE904CE00F006F8DDF804E0B5
S1135670DDE9022304B070472DE9F0478C46044667
S1135680089E002B4BD18A42154667D9B2FA82F2A2
S11356904AB1C2F1200701FA02F320FA07F7954054
S11356A047EA030C94404FEA154EBCFBFEF71FFA81
S11356B085F80EFB17C307FB08F9210C41EA0343E5
S11356C0994509D9EB1807F1FF3180F01C81994500
S11356D040F21981023F2B44A3EB0903B3FBFEF014
S11356E00EFB103300FB08F1A4B244EA0344A142C8
S11356F009D92C1900F1FF3380F00781A14240F24F
S1135700048102382C4440EA07400027641A1EB181
S11357100023D440C6E900433946BDE8F0878B42F4
S113572009D9002E00F0EC800027C6E900013846B4
S11357303946BDE8F087B3FA83F7002F48D18B428E
S113574002D3824200F2FB80841A61EB030301203E
S11357509C46002EE0D0C6E9004CDDE702B9FFDE2E
S1135760B2FA82F2002A40F08F800127491B4FEAE7
S113577015481FFA85F9B1FBF8FE08FB1E1109FB59
S11357800EF04FEA144C4CEA0143984207D9EB1847
S11357900EF1FF3102D2984200F2CD808E461B1AE0
S11357A0B3FBF8F008FB103309FB00F9A4B244EA98
S11357B00344A14507D92C1900F1FF3302D2A145B6
S11357C000F2B6801846A4EB090440EA0E409EE7B6
S11357D0C7F12005BB4022FA05FC4CEA030C21FA70
S11357E005F44FEA1C4EB4FBFEF91FFA8CF80EFBCD
S11357F0194420FA05F3B94009FB08FA19430B0CC4
S113580043EA0444A24502FA07F200FA07F30BD96B
S11358101CEB040409F1FF3080F08880A24540F2BB
S11358208580A9F102096444A4EB0A04B4FBFEF0E8
S11358300EFB104400FB08FA89B241EA0444A24575
S113584008D91CEB040400F1FF316BD2A24569D9DD
S11358500238644440EA0940A0FB0289A4EB0A042C
S11358604C454146CE4654D351D0002E69D05A1AE5
S113587064EB0E0404FA05F522FA07F3FC401D4319
S1135880C6E90054002747E79540C2F1200321FAF6
S113589003F04FEA1548B0FBF8F71FFA85F908FB47
S11358A0170024FA03F3914007FB09FC0B43190C7E
S11358B041EA00418C4504FA02F407D9691807F15A
S11358C0FF3031D28C452FD9023F2944A1EB0C0182
S11358D0B1FBF8F008FB101C00FB09FE99B241EA89
S11358E00C418E4507D9691800F1FF3318D28E4553
S11358F016D902382944A1EB0E0140EA07473AE7DA
S11359003746304608E70F46E6E61846FBE64345C9
S1135910ABD2B8EB020169EB0C0201389646A4E75E
S11359201846E8E7084695E70746CFE781467BE750
S113593002382C4447E7AEF1020E2B442FE73846D9
S113594007E73746E8E600BF704700BF0028B8BF46
S11359504042704708B5074B044613B10021AFF32A
S11359600080054B1868836A03B19847204600F00D
S113597003FD00BF00000000506B000070B500255F
S11359800C4E0D4CA41BA410A54209D100F0F6FC4A
S113599000250A4E0A4CA41BA410A54205D170BDD3
S11359A056F8253098470135EEE756F825309847E4
S11359B00135F2E7B8000020B8000020B80000204C
S11359C0BC00002003460244934200D1704703F810
S11359D0011BF9E738B50D4B05461C68A36B7BB971
S11359E0182000F0BBF80A4A0A4BA063C0E9002360
S11359F0094B012283600B2383810023C0E9042324
S1135A000022A36B1D615A6138BD00BF5400002001
S1135A100E33CDAB34126DE6ECDE050038B5134B16
S1135A201C68A36B7BB9182000F098F8104A114B3E
S1135A30A063C0E90023104B012283600B23838100
S1135A400023C0E90423A16B0C480A694B69504345
S1135A500B4C04FB0300A2FB04230344541C43F13A
S1135A600005C1E9044525F0004038BD540000207C
S1135A700E33CDAB34126DE6ECDE05002DF4515837
S1135A802D7F954C0EB46FF0004100B59CB01DAB5A
S1135A9002900690079104910848094953F8042B91
S1135AA00591006802A9019300F060F90022029BAD
S1135AB01A701CB05DF804EB03B07047540000206A
S1135AC00802FFFF034610B51A785C1C3AB9013B83
S1135AD011F8012B03F8012F002AF9D110BD234638
S1135AE0F2E7034611F8012B03F8012B002AF9D140
S1135AF07047034613F8012B002AFBD1181A01380A
S1135B00704700001FB50B4B044600226946186815
S1135B1000F012F8002805DA4FF0FF324FF0FF339F
S1135B20CDE90023DDE900010CB1C4E9000104B0B2
S1135B3010BD00BF5400002038B50023064C0546B4
S1135B4008461146236000F001FC431C02D123687F
S1135B5003B12B6038BD00BFA4010020024B0146F5
S1135B60186800F04FB800BF5400002038B505464F
S1135B70002943D051F8043C0C1F002BB8BFE41893
S1135B8000F0B4FB1E4A1368104633B96360146016
S1135B902846BDE8384000F0AABBA3420BD92168CF
S1135BA06218934201BF1A685B68521822606360EE
S1135BB00460EDE713465A680AB1A242FAD919689B
S1135BC05818A0420BD12068014458188242196029
S1135BD0DED110685268014419605A60D8E702D9CE
S1135BE00C232B60D4E7206821188A4201BF116876
S1135BF052680918216062605C60C9E738BD00BF63
S1135C008801002070B5CD1C25F0030508350C2D46
S1135C1038BF0C25002D064601DBA94203D90C230D
S1135C203360002070BD00F061FB214A14682146F6
S1135C3091B9204C23681BB9304600F015FB206055
S1135C402946304600F010FB431C24D10C23304677
S1135C50336000F04CFBE4E70B685B1B18D40B2BA0
S1135C600FD90B60CC18CD50304600F040FB04F146
S1135C700B00231D20F00700C31AD3D05A42E25070
S1135C80D0E74B688C4216BF636013600C46EBE7A9
S1135C900C464968CCE7C41C24F00304A04205D098
S1135CA0211A304600F0E0FA0130CFD02560DBE75E
S1135CB0880100208C0100202DE9F0478E6882467F
S1135CC09E420C469046994637D88A8912F4906FC2
S1135CD031D00223256809696F1A656905EB45050A
S1135CE095FBF3F509F101033B449D4238BF1D4682
